{"abi":[{"type":"constructor","inputs":[{"name":"_virtualsFactory","type":"address","internalType":"address"},{"name":"_agentRegistry","type":"address","internalType":"address"},{"name":"_trustRegistry","type":"address","internalType":"address"},{"name":"_feeSplitter","type":"address","internalType":"address"}],"stateMutability":"nonpayable"},{"type":"function","name":"DEFAULT_DEPLOY_FEE","inputs":[],"outputs":[{"name":"","type":"uint256","internalType":"uint256"}],"stateMutability":"view"},{"type":"function","name":"MAX_AGENTS_PER_CREATOR","inputs":[],"outputs":[{"name":"","type":"uint256","internalType":"uint256"}],"stateMutability":"view"},{"type":"function","name":"agentRegistry","inputs":[],"outputs":[{"name":"","type":"address","internalType":"contract IAgentRegistry"}],"stateMutability":"view"},{"type":"function","name":"deployAgent","inputs":[{"name":"name","type":"string","internalType":"string"},{"name":"symbol","type":"string","internalType":"string"},{"name":"agentURI","type":"string","internalType":"string"}],"outputs":[{"name":"agent","type":"address","internalType":"address"}],"stateMutability":"payable"},{"type":"function","name":"feeSplitter","inputs":[],"outputs":[{"name":"","type":"address","internalType":"address"}],"stateMutability":"view"},{"type":"function","name":"getAgentCount","inputs":[{"name":"creator","type":"address","internalType":"address"}],"outputs":[{"name":"","type":"uint256","internalType":"uint256"}],"stateMutability":"view"},{"type":"function","name":"getAgentsByCreator","inputs":[{"name":"creator","type":"address","internalType":"address"}],"outputs":[{"name":"","type":"address[]","internalType":"address[]"}],"stateMutability":"view"},{"type":"function","name":"getDeployFee","inputs":[],"outputs":[{"name":"","type":"uint256","internalType":"uint256"}],"stateMutability":"view"},{"type":"function","name":"getVirtualsToken","inputs":[{"name":"agent","type":"address","internalType":"address"}],"outputs":[{"name":"","type":"address","internalType":"address"}],"stateMutability":"view"},{"type":"function","name":"owner","inputs":[],"outputs":[{"name":"","type":"address","internalType":"address"}],"stateMutability":"view"},{"type":"function","name":"renounceOwnership","inputs":[],"outputs":[],"stateMutability":"nonpayable"},{"type":"function","name":"setDeployFee","inputs":[{"name":"newFee","type":"uint256","internalType":"uint256"}],"outputs":[],"stateMutability":"nonpayable"},{"type":"function","name":"setFeeSplitter","inputs":[{"name":"newFeeSplitter","type":"address","internalType":"address"}],"outputs":[],"stateMutability":"nonpayable"},{"type":"function","name":"setVirtualsFactory","inputs":[{"name":"newFactory","type":"address","internalType":"address"}],"outputs":[],"stateMutability":"nonpayable"},{"type":"function","name":"transferOwnership","inputs":[{"name":"newOwner","type":"address","internalType":"address"}],"outputs":[],"stateMutability":"nonpayable"},{"type":"function","name":"trustRegistry","inputs":[],"outputs":[{"name":"","type":"address","internalType":"contract IERC8004TrustRegistry"}],"stateMutability":"view"},{"type":"function","name":"virtualsFactory","inputs":[],"outputs":[{"name":"","type":"address","internalType":"contract IVirtualsFactory"}],"stateMutability":"view"},{"type":"event","name":"AgentDeployed","inputs":[{"name":"creator","type":"address","indexed":true,"internalType":"address"},{"name":"agent","type":"address","indexed":true,"internalType":"address"},{"name":"tokenId","type":"uint256","indexed":false,"internalType":"uint256"},{"name":"name","type":"string","indexed":false,"internalType":"string"},{"name":"virtualsToken","type":"address","indexed":true,"internalType":"address"}],"anonymous":false},{"type":"event","name":"DeployFeeUpdated","inputs":[{"name":"oldFee","type":"uint256","indexed":false,"internalType":"uint256"},{"name":"newFee","type":"uint256","indexed":false,"internalType":"uint256"}],"anonymous":false},{"type":"event","name":"FeeSplitterUpdated","inputs":[{"name":"oldSplitter","type":"address","indexed":false,"internalType":"address"},{"name":"newSplitter","type":"address","indexed":false,"internalType":"address"}],"anonymous":false},{"type":"event","name":"OwnershipTransferred","inputs":[{"name":"previousOwner","type":"address","indexed":true,"internalType":"address"},{"name":"newOwner","type":"address","indexed":true,"internalType":"address"}],"anonymous":false},{"type":"event","name":"VirtualsFactoryUpdated","inputs":[{"name":"oldFactory","type":"address","indexed":false,"internalType":"address"},{"name":"newFactory","type":"address","indexed":false,"internalType":"address"}],"anonymous":false},{"type":"error","name":"FeeForwardFailed","inputs":[]},{"type":"error","name":"InsufficientDeployFee","inputs":[]},{"type":"error","name":"MaxAgentsReached","inputs":[]},{"type":"error","name":"OwnableInvalidOwner","inputs":[{"name":"owner","type":"address","internalType":"address"}]},{"type":"error","name":"OwnableUnauthorizedAccount","inputs":[{"name":"account","type":"address","internalType":"address"}]},{"type":"error","name":"ReentrancyGuardReentrantCall","inputs":[]},{"type":"error","name":"VirtualsDeployFailed","inputs":[]},{"type":"error","name":"ZeroAddress","inputs":[]}],"bytecode":{"object":"0x60803461018757601f610c5e38819003918201601f191683019291906001600160401b0384118385101761018b5781608092849260409687528339810103126101875761004b8161019f565b6100576020830161019f565b9161006f606061006886840161019f565b920161019f565b903315610170575f549360018060a01b03908160018060a01b03199533878916175f55885197823391167f8be0079c531659141344cd1fd0a4f28419497f9722a3daafe3b4186f6b6457e05f80a360017f9b779b17422d0df92223018b32b4d1fa46e071723d6817e2486d003becc55f00551695861561016157508116918215610150578116928315610150571693841561013f5783600154161760015582600254161760025581600354161760035560045416176004556611c37937e0800060055551610aaa90816101b48239f35b855163d92e233d60e01b8152600490fd5b865163d92e233d60e01b8152600490fd5b63d92e233d60e01b8152600490fd5b8451631e4fbdf760e01b81525f6004820152602490fd5b5f80fd5b634e487b7160e01b5f52604160045260245ffd5b51906001600160a01b03821682036101875756fe6080604081815260049081361015610015575f80fd5b5f925f3560e01c9081630d1cfcae146109a2575080632664a6741461096557806351ed369f146108ca57806355c6a7661461088f5780636052970c14610868578063715018a6146108115780637b238066146107f05780638c246b28146103cf5780638da5cb5b146103a75780639b8354271461037e578063a9e529871461032b578063b17fb9d61461028d578063bc79a12c1461026e578063d234f41014610252578063de7afb2514610229578063e246578c146101735763f2fde38b146100dc575f80fd5b3461016f57602036600319011261016f576001600160a01b0382358181169391929084900361016b5761010d610a49565b83156101555750505f54826bffffffffffffffffffffffff60a01b8216175f55167f8be0079c531659141344cd1fd0a4f28419497f9722a3daafe3b4186f6b6457e05f80a380f35b51631e4fbdf760e01b8152908101849052602490fd5b8480fd5b8280fd5b50903461016f5760209081600319360112610225576001600160a01b03939035848116908190036102215781526007825282812091835190818185549182815201908195855282852090855b81811061020b57505050826101d59103836109f3565b8451948186019282875251809352850193925b8281106101f55785850386f35b83518716855293810193928101926001016101e8565b82548a16845292840192600192830192016101bf565b5080fd5b8380fd5b83823461022157816003193601126102215760015490516001600160a01b039091168152602090f35b83823461022157816003193601126102215760209051600a8152f35b8382346102215781600319360112610221576020906005549051908152f35b50829034610221576020366003190112610221576001600160a01b039083358281169182820361016b576102bf610a49565b821561031c5785546001600160a01b0319811693909317909555935191166001600160a01b0390811682529092166020830152907fe0c6ae09a6c193cf5aae910fefec10b284dda740eb7ea7c9ca1dd625d9a0745e90604090a180f35b5163d92e233d60e01b81528590fd5b503461016f57602036600319011261016f577fabaca5c30c4ce9eb8b1669eeb26605aac662ebe41101a4fe5620c77dc45361899135610368610a49565b600554908060055582519182526020820152a180f35b83823461022157816003193601126102215760035490516001600160a01b039091168152602090f35b838234610221578160031936011261022157905490516001600160a01b039091168152602090f35b508290600319926060843601126107285767ffffffffffffffff9080358281116107285761040090369083016109c5565b91602480358581116107285761041990369084016109c5565b9590976044358281116107285761043390369086016109c5565b99907f9b779b17422d0df92223018b32b4d1fa46e071723d6817e2486d003becc55f009860028a54146107e05760028a5560055434106107d15760079c335f5260209d8e52600a8c5f205410156107c157888c8f928f8b908e92600160a01b60019003998d8b600154169651998a98899788976311848d6560e31b895288016060905260648801906104c492610a29565b918487840301908701526104d792610a29565b908382030160448401526104eb9189610a29565b03915a905f91f190811561071e579083915f91610787575b50169a8b15610777579082918d8d8d9998979695600354168a519a8b9263a96886f160e01b84528b84015289830152815f8161054360448201888a610a29565b03925af197881561076d575f9861073e575b506006545f19811461072c5760010191826006558360025416803b15610728578e5f8f6105aa8b9583978e9351998a9889978896631ca7110760e21b8852870152850152608060448501526084840191610a29565b33606483015203925af1801561071e576106f8575b5033825260078c52898220805490680100000000000000008210156106e657600182018082558210156106d4578380938f8f8f600885978697875284872001936bffffffffffffffffffffffff60a01b9484868254161790558387525284209182541617905534908954165af1923d156106cc573d9283116106bb5750885191610652601f8201601f19168d01846109f3565b82528a3d92013e5b156106ad5750600193927fc50b30cf4b79806690ee742070233dcf41cc60e11e7d1b9f8bf5951a319cdbc0879384936106a3895192839283528a8d84015233958b840191610a29565b0390a45551908152f35b85516304073ee160e41b8152fd5b634e487b7160e01b82526041855290fd5b50505061065a565b634e487b7160e01b8452603287528584fd5b634e487b7160e01b8452604187528584fd5b90915082811161070c5789525f908c6105bf565b83604186634e487b7160e01b5f52525ffd5b8b513d5f823e3d90fd5b5f80fd5b86601189634e487b7160e01b5f52525ffd5b9097508d81813d8311610766575b61075681836109f3565b810103126107285751968e610555565b503d61074c565b8c513d5f823e3d90fd5b8a516345b7121360e01b81528790fd5b8092508e8092503d83116107ba575b6107a081836109f3565b81010312610728575182811681036107285782908e610503565b503d610796565b8b51630c518ac160e01b81528890fd5b8a51620be71b60e11b81528790fd5b8a51633ee5aeb560e01b81528790fd5b5034610728575f36600319011261072857602090516611c37937e080008152f35b34610728575f36600319011261072857610829610a49565b5f80546001600160a01b0319811682556001600160a01b03167f8be0079c531659141344cd1fd0a4f28419497f9722a3daafe3b4186f6b6457e08280a3005b5034610728575f36600319011261072857905490516001600160a01b039091168152602090f35b50903461072857602036600319011261072857356001600160a01b0381169190829003610728576020915f5260078252805f20549051908152f35b5034610728576020366003190112610728578135916001600160a01b039182841691828503610728576108fb610a49565b82156109575750600180546001600160a01b03198116939093179055516001600160a01b039290911682168152911660208201527f3cbf7afd32574e71a94b351d6e1c564fdb49db6abb894857740c730215f2703090604090a1005b905163d92e233d60e01b8152fd5b50903461072857602036600319011261072857356001600160a01b038181169291839003610728576020925f5260088352815f2054169051908152f35b34610728575f366003190112610728576002546001600160a01b03168152602090f35b9181601f840112156107285782359167ffffffffffffffff8311610728576020838186019501011161072857565b90601f8019910116810190811067ffffffffffffffff821117610a1557604052565b634e487b7160e01b5f52604160045260245ffd5b908060209392818452848401375f828201840152601f01601f1916010190565b5f546001600160a01b03163303610a5c57565b60405163118cdaa760e01b8152336004820152602490fdfea2646970667358221220c925c0ddc1c8b5465658e1fe8ffe5c93fccdcba777e9fdf56d560c47720a08dd64736f6c63430008180033","linkReferences":{}},"methodIdentifiers":{"DEFAULT_DEPLOY_FEE()":"7b238066","MAX_AGENTS_PER_CREATOR()":"d234f410","agentRegistry()":"0d1cfcae","deployAgent(string,string,string)":"8c246b28","feeSplitter()":"6052970c","getAgentCount(address)":"55c6a766","getAgentsByCreator(address)":"e246578c","getDeployFee()":"bc79a12c","getVirtualsToken(address)":"2664a674","owner()":"8da5cb5b","renounceOwnership()":"715018a6","setDeployFee(uint256)":"a9e52987","setFeeSplitter(address)":"b17fb9d6","setVirtualsFactory(address)":"51ed369f","transferOwnership(address)":"f2fde38b","trustRegistry()":"9b835427","virtualsFactory()":"de7afb25"},"id":17}