{"abi":[{"type":"receive","stateMutability":"payable"},{"type":"function","name":"BURN_ADDRESS","inputs":[],"outputs":[{"name":"","type":"address","internalType":"address"}],"stateMutability":"view"},{"type":"function","name":"MAX_TRACKED_TOKENS","inputs":[],"outputs":[{"name":"","type":"uint256","internalType":"uint256"}],"stateMutability":"view"},{"type":"function","name":"SWAP_ROUTER","inputs":[],"outputs":[{"name":"","type":"address","internalType":"contract ISwapRouter"}],"stateMutability":"view"},{"type":"function","name":"WETH","inputs":[],"outputs":[{"name":"","type":"address","internalType":"contract IWETH9"}],"stateMutability":"view"},{"type":"function","name":"agent","inputs":[],"outputs":[{"name":"","type":"address","internalType":"address"}],"stateMutability":"view"},{"type":"function","name":"agentToken","inputs":[],"outputs":[{"name":"","type":"address","internalType":"address"}],"stateMutability":"view"},{"type":"function","name":"claimGrowthETH","inputs":[],"outputs":[],"stateMutability":"nonpayable"},{"type":"function","name":"claimGrowthUSDC","inputs":[],"outputs":[],"stateMutability":"nonpayable"},{"type":"function","name":"controller","inputs":[],"outputs":[{"name":"","type":"address","internalType":"address"}],"stateMutability":"view"},{"type":"function","name":"creator","inputs":[],"outputs":[{"name":"","type":"address","internalType":"address"}],"stateMutability":"view"},{"type":"function","name":"depositERC20","inputs":[{"name":"token","type":"address","internalType":"address"},{"name":"amount","type":"uint256","internalType":"uint256"}],"outputs":[],"stateMutability":"nonpayable"},{"type":"function","name":"emergencyWithdraw","inputs":[],"outputs":[],"stateMutability":"nonpayable"},{"type":"function","name":"executeBuybackAndBurn","inputs":[{"name":"inputToken","type":"address","internalType":"address"},{"name":"amountIn","type":"uint256","internalType":"uint256"},{"name":"fee","type":"uint24","internalType":"uint24"},{"name":"amountOutMinimum","type":"uint256","internalType":"uint256"},{"name":"deadline","type":"uint256","internalType":"uint256"}],"outputs":[{"name":"amountBurned","type":"uint256","internalType":"uint256"}],"stateMutability":"nonpayable"},{"type":"function","name":"executeSwap","inputs":[{"name":"params","type":"tuple","internalType":"struct IAgentTreasury.SwapParams","components":[{"name":"tokenIn","type":"address","internalType":"address"},{"name":"tokenOut","type":"address","internalType":"address"},{"name":"fee","type":"uint24","internalType":"uint24"},{"name":"amountIn","type":"uint256","internalType":"uint256"},{"name":"amountOutMinimum","type":"uint256","internalType":"uint256"},{"name":"deadline","type":"uint256","internalType":"uint256"}]}],"outputs":[{"name":"amountOut","type":"uint256","internalType":"uint256"}],"stateMutability":"nonpayable"},{"type":"function","name":"feeSplitter","inputs":[],"outputs":[{"name":"","type":"address","internalType":"contract IFeeSplitterClaims"}],"stateMutability":"view"},{"type":"function","name":"getETHBalance","inputs":[],"outputs":[{"name":"","type":"uint256","internalType":"uint256"}],"stateMutability":"view"},{"type":"function","name":"getTotalBurnedAmount","inputs":[],"outputs":[{"name":"","type":"uint256","internalType":"uint256"}],"stateMutability":"view"},{"type":"function","name":"getTotalBurns","inputs":[],"outputs":[{"name":"","type":"uint256","internalType":"uint256"}],"stateMutability":"view"},{"type":"function","name":"getTrackedBalances","inputs":[],"outputs":[{"name":"balances","type":"tuple[]","internalType":"struct IAgentTreasury.TokenBalance[]","components":[{"name":"token","type":"address","internalType":"address"},{"name":"balance","type":"uint256","internalType":"uint256"}]}],"stateMutability":"view"},{"type":"function","name":"initialize","inputs":[{"name":"_agent","type":"address","internalType":"address"},{"name":"_creator","type":"address","internalType":"address"},{"name":"_controller","type":"address","internalType":"address"},{"name":"_feeSplitter","type":"address","internalType":"address"},{"name":"_agentToken","type":"address","internalType":"address"}],"outputs":[],"stateMutability":"nonpayable"},{"type":"function","name":"setAgentToken","inputs":[{"name":"newAgentToken","type":"address","internalType":"address"}],"outputs":[],"stateMutability":"nonpayable"},{"type":"function","name":"setController","inputs":[{"name":"newController","type":"address","internalType":"address"}],"outputs":[],"stateMutability":"nonpayable"},{"type":"function","name":"setTrackedToken","inputs":[{"name":"token","type":"address","internalType":"address"},{"name":"tracked","type":"bool","internalType":"bool"}],"outputs":[],"stateMutability":"nonpayable"},{"type":"event","name":"BuybackAndBurn","inputs":[{"name":"agentToken","type":"address","indexed":true,"internalType":"address"},{"name":"amountSpent","type":"uint256","indexed":false,"internalType":"uint256"},{"name":"amountBurned","type":"uint256","indexed":false,"internalType":"uint256"}],"anonymous":false},{"type":"event","name":"ControllerUpdated","inputs":[{"name":"oldController","type":"address","indexed":false,"internalType":"address"},{"name":"newController","type":"address","indexed":false,"internalType":"address"}],"anonymous":false},{"type":"event","name":"ERC20Deposited","inputs":[{"name":"token","type":"address","indexed":true,"internalType":"address"},{"name":"sender","type":"address","indexed":true,"internalType":"address"},{"name":"amount","type":"uint256","indexed":false,"internalType":"uint256"}],"anonymous":false},{"type":"event","name":"ETHDeposited","inputs":[{"name":"sender","type":"address","indexed":true,"internalType":"address"},{"name":"amount","type":"uint256","indexed":false,"internalType":"uint256"}],"anonymous":false},{"type":"event","name":"EmergencyWithdrawal","inputs":[{"name":"token","type":"address","indexed":true,"internalType":"address"},{"name":"amount","type":"uint256","indexed":false,"internalType":"uint256"}],"anonymous":false},{"type":"event","name":"SwapExecuted","inputs":[{"name":"tokenIn","type":"address","indexed":true,"internalType":"address"},{"name":"tokenOut","type":"address","indexed":true,"internalType":"address"},{"name":"amountIn","type":"uint256","indexed":false,"internalType":"uint256"},{"name":"amountOut","type":"uint256","indexed":false,"internalType":"uint256"}],"anonymous":false},{"type":"event","name":"TokenTrackingUpdated","inputs":[{"name":"token","type":"address","indexed":true,"internalType":"address"},{"name":"tracked","type":"bool","indexed":false,"internalType":"bool"}],"anonymous":false},{"type":"event","name":"TreasuryInitialized","inputs":[{"name":"agent","type":"address","indexed":true,"internalType":"address"},{"name":"creator","type":"address","indexed":true,"internalType":"address"},{"name":"controller","type":"address","indexed":true,"internalType":"address"}],"anonymous":false},{"type":"error","name":"AgentTokenNotSet","inputs":[]},{"type":"error","name":"AlreadyInitialized","inputs":[]},{"type":"error","name":"ETHTransferFailed","inputs":[]},{"type":"error","name":"InsufficientBalance","inputs":[]},{"type":"error","name":"ReentrancyGuardReentrantCall","inputs":[]},{"type":"error","name":"SafeERC20FailedOperation","inputs":[{"name":"token","type":"address","internalType":"address"}]},{"type":"error","name":"SlippageExceeded","inputs":[]},{"type":"error","name":"UnauthorizedController","inputs":[]},{"type":"error","name":"UnauthorizedCreator","inputs":[]},{"type":"error","name":"ZeroAddress","inputs":[]},{"type":"error","name":"ZeroAmount","inputs":[]}],"bytecode":{"object":"0x6080806040523461003a5760017f9b779b17422d0df92223018b32b4d1fa46e071723d6817e2486d003becc55f0055611b5b908161003f8239f35b5f80fdfe60806040908082526004908136101561004b575b5050361561001f575f80fd5b513481527f6c703791f399558807424f489ccd811c72b4ff0b74af547264fad7c646776df060203392a2005b5f915f3560e01c91826302d05d3f1461176f575081630b752fbc146117515781631459457a1461149157816343f1e2011461114457816357b968fd146110dc5781636052970c146110b35781636e94729814611098578163850317eb1461107957816391faccfd1461100f57816392d56dd214610d6d57816392eefe9b14610cb257816397feb92614610ba9578163990befac14610a1e578163ad5c4648146109fc578163b05707e9146109d3578163c6005893146109a4578163db2e21bc1461063d578163dc896d3514610621578163dde700951461025e578163e9c066c4146101cc57508063f5ff5c76146101a0578063f77c4791146101775763fccc2813146101575780610013565b90346101735781600319360112610173576020905161dead8152f35b5080fd5b50903461017357816003193601126101735760025490516001600160a01b039091168152602090f35b5090346101735781600319360112610173579054905160089190911c6001600160a01b03168152602090f35b905081923461025a578260031936011261025a576101e8611ad6565b6003546001600160a01b031691823b1561025557815163dedbf30760e01b81529284918491829084905af190811561024c5750610235575b5060015f80516020611b068339815191525580f35b61023e906117d4565b61024957805f610220565b80fd5b513d84823e3d90fd5b505050fd5b5050fd5b8284346101735760a036600319011261017357610279611792565b926024938435916044359462ffffff861680960361024957610299611ad6565b6002546001600160a01b039390841633036106115783835416156106015784156105f15783169687156105e1576006602160991b018881036105575786516370a0823160e01b815230858201526020818481855afa90811561054d57849161051b575b508681106104aa575b505061035f96975b848454169087519061031e826117fc565b81526020998a92838301528882015230606082015286608082015260643560a08201528360c08201528751809981926304e45aaf60e01b8352878301611877565b038185732626664c2603336e57b271c5c0b26f421741e4815af19687156104a057829761046d575b508383541686519063a9059cbb60e01b5f5261dead8552888352895f60448180855af160015f511481161561044e575b8289521561043e575050600754916001830180931161042e5750509184917f8e5b8627d2d2617757f2a5976ac5ca35862e4f73f83982bce26f958dcd4184869360075561040687600854611948565b60085554169281519081528587820152a260015f80516020611b068339815191525551908152f35b634e487b7160e01b815260118452fd5b635274afe760e01b825281850152fd5b600181151661046457813b15153d1516166103b7565b823d5f823e3d90fd5b9096508781813d8311610499575b6104858183611834565b8101031261049557519588610387565b5f80fd5b503d61047b565b86513d84823e3d90fd5b6104b49087611856565b9081471061050b57803b1561050757839085895180948193630d0e30db60e41b83525af180156104fd576104e9575b80610305565b6104f383916117d4565b61017357886104e3565b87513d85823e3d90fd5b8380fd5b8751631e9acf1760e31b81528590fd5b90506020813d602011610545575b8161053660209383611834565b8101031261049557518a6102fc565b3d9150610529565b88513d86823e3d90fd5b5085516370a0823160e01b8152308482015260208183818c5afa9081156104fd5790869184916105ac575b501061059c57876105978661035f999a611955565b61030d565b8551631e9acf1760e31b81528390fd5b9150506020813d6020116105d9575b816105c860209383611834565b81010312610495578590518a610582565b3d91506105bb565b855163d92e233d60e01b81528390fd5b8551631f2a200560e01b81528390fd5b8551630e1c130f60e21b81528390fd5b8551632b06fb3960e21b81528390fd5b8284346101735781600319360112610173576020905160148152f35b839150346109a057826003193601126109a057610658611ad6565b6001805490926001600160a01b03929183163381900361099257854791826108f6575b505050600554855b8181106107c657505080516370a0823160e01b815230838201526006602160991b0193602093919291908484602481895afa9384156107bc57889461078d575b5083151580610778575b6106e6575b87875f80516020611b068339815191525580f35b8654169082519163a9059cbb60e01b5f52815283602452845f604481808a5af1875f5114811615610763575b8284521561074f575050519081527f23d6711a1d031134a36921253c75aa59e967d38e369ac625992824315e204f209190a28280808080806106d2565b635274afe760e01b82528101859052602490fd5b8781151661046457863b15153d151616610712565b508588526006855260ff8389205416156106cd565b9093508481813d83116107b5575b6107a58183611834565b81010312610495575192886106c3565b503d61079b565b83513d8a823e3d90fd5b846107d0826118d3565b90549060031b1c1683516370a0823160e01b81523086820152602090602482828281875afa9182156108ec57908a95949392918c926108ba575b508161081b575b5050505001610683565b90919293948990541687519063a9059cbb60e01b5f528952828252835f60448180895af18b5f511481161561089c575b8189521561088a575050889392917f23d6711a1d031134a36921253c75aa59e967d38e369ac625992824315e204f20918751908152a288808080610811565b635274afe760e01b8152808901859052fd5b8b8115166108b157853b15153d15161661084b565b503d5f823e3d90fd5b955090508185813d81116108e5575b6108d38183611834565b8101031261049557899451908c61080a565b503d6108c9565b87513d8d823e3d90fd5b81808481935af13d1561098d573d67ffffffffffffffff811161097a5783519061092a601f8201601f191660200183611834565b81528760203d92013e5b1561096c577f23d6711a1d031134a36921253c75aa59e967d38e369ac625992824315e204f20602087928451908152a285858161067b565b505163b12d13eb60e01b8152fd5b634e487b7160e01b885260418552602488fd5b610934565b5051638ef0dd5d60e01b8152fd5b8280fd5b82843461017357816003193601126101735760209051732626664c2603336e57b271c5c0b26f421741e4818152f35b839150346109a057826003193601126109a0575490516001600160a01b03909116815260209150f35b828434610173578160031936011261017357516006602160991b018152602090f35b905082346109a057826003193601126109a0579160055490610a3f8261191c565b91610a4c85519384611834565b808352610a588161191c565b60209490601f1901835b818110610b7f575050825b828110610acb57505050835193838594850191818652845180935281818701950193905b838210610a9e5786860387f35b845180516001600160a01b0316875283015186840152879650948501949382019360019190910190610a91565b610ad98197959694976118d3565b905486516370a0823160e01b81523085820152929160031b1c6001600160a01b03168583602481845afa8015610b75578990610b47575b60019350875191610b2083611818565b825286820152610b308289611934565b52610b3b8188611934565b50019592949395610a6d565b508583813d8311610b6e575b610b5d8183611834565b810103126104955760019251610b10565b503d610b53565b87513d8b823e3d90fd5b9587959681959851610b9081611818565b898152898382015282828a010152019693959496610a62565b839150346109a057816003193601126109a057610bc4611792565b9160243592610bd1611ad6565b6001600160a01b0316918215610ca4578315610c965781516323b872dd60e01b86523382523060245260448590529060208660648180885af16001875114811615610c77575b8284528660605215610c63575050519182527fe33e9822e3317b004d587136bab2627ea1ecfbba4eb79abddd0a56cfdd09c0e160203393a360015f80516020611b068339815191525580f35b635274afe760e01b82528101839052602490fd5b6001811516610c8d57843b15153d151616610c17565b823d88823e3d90fd5b9051631f2a200560e01b8152fd5b905163d92e233d60e01b8152fd5b82843461017357602036600319011261017357610ccd611792565b6001546001600160a01b039190821633141580610d5f575b610d4f5781168015610d3f577f1c87e2bbc4e5fa5d7f6f8c44d66cb241dff224b8602eb5435ca2076d2a5c6fc293945060025491816bffffffffffffffffffffffff60a01b8416176002558351921682526020820152a180f35b825163d92e233d60e01b81528590fd5b8251638ef0dd5d60e01b81528590fd5b508160025416331415610ce5565b905082346109a057806003193601126109a057610d88611792565b6024926024359384158015860361100b576002546001600160a01b03919082163303610ffb57818516968715610feb5780610fd5575b15610e7a57505050600554906014821015610e6c5768010000000000000000821015610e59575091610e3b602092610e1d8560017f7e6380992f78d984a2a2beb22c0a9e84c75a4b8e51e860c549247931116a932697016005556118d3565b90919060018060a01b038084549260031b9316831b921b1916179055565b83855260068252808520600160ff198254161790555160018152a280f35b634e487b7160e01b865260419052602485fd5b8351631e9acf1760e31b8152fd5b9195949350919080610fc0575b610e94575b505050505080f35b8386526006602052828620805460ff19169055600580549091875b828110610ef2575b50505050507f7e6380992f78d984a2a2beb22c0a9e84c75a4b8e51e860c549247931116a932691925060209051848152a28180808080610e8c565b8487610efd836118d3565b929054600393841b1c1614610f155750600101610eaf565b959697905f9594951993848101908111610fae5790610e1d86610f3a610f47946118d3565b9054908b1b1c16916118d3565b8454918215610f9d575050917f7e6380992f78d984a2a2beb22c0a9e84c75a4b8e51e860c549247931116a9326959391602095930192610f86846118d3565b81939154921b1b1916905555908392868080610eb7565b634e487b7160e01b8a526031905288fd5b634e487b7160e01b8b5260118452828bfd5b50838652600660205260ff8387205416610e87565b50868852600660205260ff868920541615610dbe565b865163d92e233d60e01b81528590fd5b8551632b06fb3960e21b81528490fd5b8680fd5b905082346109a05760203660031901126109a05761102b611792565b6002546001600160a01b0391908216330361106a571690811561105b575081546001600160a01b03191617905580f35b5163d92e233d60e01b81529050fd5b505051632b06fb3960e21b8152fd5b8284346101735781600319360112610173576020906007549051908152f35b82843461017357816003193601126101735751478152602090f35b82843461017357816003193601126101735760035490516001600160a01b039091168152602090f35b905081923461025a578260031936011261025a576110f8611ad6565b6003546001600160a01b031691823b15610255578151636727299960e01b81529284918491829084905af190811561024c5750610235575060015f80516020611b068339815191525580f35b8284346104955760c03660031901126104955761115f611ad6565b6002546001600160a01b039390841633036114835760643590811561147557846111876117a8565b16158015611464575b611456576006602160991b0180866111a66117a8565b16036113d55783516370a0823160e01b81523083820152602081602481855afa908115611389575f916113a3575b5083811061133d575b505b856111e86117a8565b1603611325575b6111f76117a8565b6111ff6117be565b9160443562ffffff811680910361100b5791879493916112699386885193611226856117fc565b1683526020998a9416848401528783015230606083015284608083015260843560a08301528760c0830152865193849283926304e45aaf60e01b84528301611877565b038188732626664c2603336e57b271c5c0b26f421741e4815af194851561131a57946112eb575b507fdd36740e2a012d93061a0d99eaa9107860955de4e90027d3cf465a055026c407836112bb6117a8565b93806112c56117be565b8351958652888a87015216941692a360015f80516020611b068339815191525551908152f35b9093508481813d8311611313575b6113038183611834565b8101031261049557519285611290565b503d6112f9565b8451903d90823e3d90fd5b61133882866113326117a8565b16611955565b6111ef565b6113479084611856565b80471061139357813b15610495575f8391865192838092630d0e30db60e41b8252865af1801561138957156111dd576113819195506117d4565b5f93866111dd565b85513d5f823e3d90fd5b8451631e9acf1760e31b81528390fd5b90506020813d6020116113cd575b816113be60209383611834565b810103126104955751876111d4565b3d91506113b1565b60246020876113e26117a8565b168651928380926370a0823160e01b825230888301525afa908115611389579084915f91611421575b5010156111df57508251631e9acf1760e31b8152fd5b9150506020813d60201161144e575b8161143d60209383611834565b81010312610495578390518861140b565b3d9150611430565b825163d92e233d60e01b8152fd5b508461146e6117be565b1615611190565b8251631f2a200560e01b8152fd5b9051632b06fb3960e21b8152fd5b83346104955760a0366003190112610495576114ab611792565b602480356001600160a01b038181169490918590036104955760443595828716809703610495576064358381168091036104955760843590848216809203610495575f549460ff8616611742578716968715611732578815611732578915611732578115611732576001958691610100600160a81b039060081b16906affffffffffffffffffffff60a81b1617175f556bffffffffffffffffffffffff60a01b90888287541617865589826002541617600255816003541617600355825416178155815192636eb1769f60e11b84523082850152732626664c2603336e57b271c5c0b26f421741e4819384868201526020936006602160991b01948083604481895afa928315611728575f936116f9575b505f1983018093116116e75781519263095ea7b360e01b93845f52888752818a52825f604481808c5af1865f51148116156116da575b81855215611624575b8c8c8c7f806558b2e8944be6ed9035bf00cf07a15606992b27d6c0abe83f8d058cfb362d5f80a4005b845f528887525f8a52825f604481808c5af1865f51148116156116c5575b818552156116b1575082519788945f52865288525f60448180895af192805f511484161561168c575b50521561167d578080808080806115fb565b635274afe760e01b8352820152fd5b909280925015166116a8578490843b15153d151616918a61166b565b843d5f823e3d90fd5b635274afe760e01b81528681018890528990fd5b868115166108b157883b15153d151616611642565b883b15153d1516166115f2565b87601186634e487b7160e01b5f52525ffd5b9080935081813d8311611721575b6117118183611834565b810103126104955751918b6115bc565b503d611707565b82513d5f823e3d90fd5b845163d92e233d60e01b81528490fd5b845162dc149f60e41b81528490fd5b8334610495575f366003190112610495576020906008549051908152f35b34610495575f366003190112610495576001546001600160a01b03168152602090f35b600435906001600160a01b038216820361049557565b6004356001600160a01b03811681036104955790565b6024356001600160a01b03811681036104955790565b67ffffffffffffffff81116117e857604052565b634e487b7160e01b5f52604160045260245ffd5b60e0810190811067ffffffffffffffff8211176117e857604052565b6040810190811067ffffffffffffffff8211176117e857604052565b90601f8019910116810190811067ffffffffffffffff8211176117e857604052565b9190820391821161186357565b634e487b7160e01b5f52601160045260245ffd5b91909160c060e08201938160018060a01b039182815116855282602082015116602086015262ffffff60408201511660408601528260608201511660608601526080810151608086015260a081015160a0860152015116910152565b6005548110156119085760055f527f036b6384b5eca791c62761152d0c79bb0604c104a5fb6f4eb0703f3154bb3db001905f90565b634e487b7160e01b5f52603260045260245ffd5b67ffffffffffffffff81116117e85760051b60200190565b80518210156119085760209160051b010190565b9190820180921161186357565b9060018060a01b038216604091825193636eb1769f60e11b85526004913083870152732626664c2603336e57b271c5c0b26f421741e48194602496868882015260209283826044818a5afa8015611acc575f90611a9d575b6119b79250611948565b9181519263095ea7b360e01b93845f52888752818a52825f604481808a5af160015f5114811615611a90575b818552156119f8575b50505050505050505050565b845f528887525f8a52825f604481808a5af160015f5114811615611a7a575b818552156116b1575082519788945f52865288525f60448180875af19260015f5114841615611a53575b50521561167d578080808080806119ec565b909291506001821516611a71579085913b15153d151616915f611a41565b853d5f823e3d90fd5b60018115166108b157863b15153d151616611a17565b863b15153d1516166119e3565b508382813d8311611ac5575b611ab38183611834565b81010312610495576119b791516119ad565b503d611aa9565b83513d5f823e3d90fd5b5f80516020611b068339815191526002815414611af35760029055565b604051633ee5aeb560e01b8152600490fdfe9b779b17422d0df92223018b32b4d1fa46e071723d6817e2486d003becc55f00a2646970667358221220c28b36d57486ca07b45edcf7cec39818f574baf5ba4b23e1d1f4562d72d6d82c64736f6c63430008180033","linkReferences":{}},"methodIdentifiers":{"BURN_ADDRESS()":"fccc2813","MAX_TRACKED_TOKENS()":"dc896d35","SWAP_ROUTER()":"c6005893","WETH()":"ad5c4648","agent()":"f5ff5c76","agentToken()":"b05707e9","claimGrowthETH()":"57b968fd","claimGrowthUSDC()":"e9c066c4","controller()":"f77c4791","creator()":"02d05d3f","depositERC20(address,uint256)":"97feb926","emergencyWithdraw()":"db2e21bc","executeBuybackAndBurn(address,uint256,uint24,uint256,uint256)":"dde70095","executeSwap((address,address,uint24,uint256,uint256,uint256))":"43f1e201","feeSplitter()":"6052970c","getETHBalance()":"6e947298","getTotalBurnedAmount()":"0b752fbc","getTotalBurns()":"850317eb","getTrackedBalances()":"990befac","initialize(address,address,address,address,address)":"1459457a","setAgentToken(address)":"91faccfd","setController(address)":"92eefe9b","setTrackedToken(address,bool)":"92d56dd2"},"id":50}