{"abi":[{"type":"constructor","inputs":[{"name":"_factory","type":"address","internalType":"address"}],"stateMutability":"nonpayable"},{"type":"function","name":"factory","inputs":[],"outputs":[{"name":"","type":"address","internalType":"address"}],"stateMutability":"view"},{"type":"function","name":"getAgent","inputs":[{"name":"agent","type":"address","internalType":"address"}],"outputs":[{"name":"","type":"tuple","internalType":"struct IAgentRegistry.AgentInfo","components":[{"name":"creator","type":"address","internalType":"address"},{"name":"fid","type":"uint256","internalType":"uint256"},{"name":"agentURI","type":"string","internalType":"string"},{"name":"status","type":"uint8","internalType":"enum IAgentRegistry.AgentStatus"},{"name":"registeredAt","type":"uint256","internalType":"uint256"}]}],"stateMutability":"view"},{"type":"function","name":"getAgentByFid","inputs":[{"name":"fid","type":"uint256","internalType":"uint256"}],"outputs":[{"name":"","type":"address","internalType":"address"}],"stateMutability":"view"},{"type":"function","name":"isRegistered","inputs":[{"name":"agent","type":"address","internalType":"address"}],"outputs":[{"name":"","type":"bool","internalType":"bool"}],"stateMutability":"view"},{"type":"function","name":"owner","inputs":[],"outputs":[{"name":"","type":"address","internalType":"address"}],"stateMutability":"view"},{"type":"function","name":"registerAgent","inputs":[{"name":"agent","type":"address","internalType":"address"},{"name":"fid","type":"uint256","internalType":"uint256"},{"name":"agentURI","type":"string","internalType":"string"},{"name":"creator","type":"address","internalType":"address"}],"outputs":[],"stateMutability":"nonpayable"},{"type":"function","name":"renounceOwnership","inputs":[],"outputs":[],"stateMutability":"nonpayable"},{"type":"function","name":"setFactory","inputs":[{"name":"newFactory","type":"address","internalType":"address"}],"outputs":[],"stateMutability":"nonpayable"},{"type":"function","name":"transferOwnership","inputs":[{"name":"newOwner","type":"address","internalType":"address"}],"outputs":[],"stateMutability":"nonpayable"},{"type":"function","name":"updateAgentStatus","inputs":[{"name":"agent","type":"address","internalType":"address"},{"name":"newStatus","type":"uint8","internalType":"enum IAgentRegistry.AgentStatus"}],"outputs":[],"stateMutability":"nonpayable"},{"type":"function","name":"updateAgentURI","inputs":[{"name":"agent","type":"address","internalType":"address"},{"name":"newURI","type":"string","internalType":"string"}],"outputs":[],"stateMutability":"nonpayable"},{"type":"event","name":"AgentRegistered","inputs":[{"name":"agent","type":"address","indexed":true,"internalType":"address"},{"name":"creator","type":"address","indexed":true,"internalType":"address"},{"name":"fid","type":"uint256","indexed":false,"internalType":"uint256"}],"anonymous":false},{"type":"event","name":"AgentStatusUpdated","inputs":[{"name":"agent","type":"address","indexed":true,"internalType":"address"},{"name":"oldStatus","type":"uint8","indexed":false,"internalType":"enum IAgentRegistry.AgentStatus"},{"name":"newStatus","type":"uint8","indexed":false,"internalType":"enum IAgentRegistry.AgentStatus"}],"anonymous":false},{"type":"event","name":"AgentURIUpdated","inputs":[{"name":"agent","type":"address","indexed":true,"internalType":"address"},{"name":"newURI","type":"string","indexed":false,"internalType":"string"}],"anonymous":false},{"type":"event","name":"OwnershipTransferred","inputs":[{"name":"previousOwner","type":"address","indexed":true,"internalType":"address"},{"name":"newOwner","type":"address","indexed":true,"internalType":"address"}],"anonymous":false},{"type":"error","name":"AgentAlreadyRegistered","inputs":[]},{"type":"error","name":"AgentNotFound","inputs":[]},{"type":"error","name":"FidAlreadyRegistered","inputs":[]},{"type":"error","name":"InvalidStatus","inputs":[]},{"type":"error","name":"OwnableInvalidOwner","inputs":[{"name":"owner","type":"address","internalType":"address"}]},{"type":"error","name":"OwnableUnauthorizedAccount","inputs":[{"name":"account","type":"address","internalType":"address"}]},{"type":"error","name":"UnauthorizedCaller","inputs":[]}],"bytecode":{"object":"0x6080346100c257601f610cf838819003918201601f19168301916001600160401b038311848410176100c6578084926020946040528339810103126100c257516001600160a01b0390818116908190036100c25733156100aa575f5460018060a01b03199033828216175f55604051933391167f8be0079c531659141344cd1fd0a4f28419497f9722a3daafe3b4186f6b6457e05f80a36001541617600155610c1d90816100db8239f35b604051631e4fbdf760e01b81525f6004820152602490fd5b5f80fd5b634e487b7160e01b5f52604160045260245ffdfe6080604081815260049182361015610015575f80fd5b60e05f3560e01c9182634f1590cb14610877575081635bb4780814610834578163715018a6146107dd578163729c441c1461051b5781638da5cb5b146104f4578163c3c5a547146104b9578163c45a015514610491578163db7fd42214610446578163f2fde38b146103b9578163fb3551ff146101c7575063fc08a7da1461009b575f80fd5b346101c357806003193601126101c3576100b3610a66565b9160243560038110156101c35760018060a01b0380941693845f52600260205280845f20541633141590816101b5575b506101a657835f528160205260ff835f2054161561019757835f52600260205260ff6003845f20015416916003831015610184578183146101765750906101737fc90eb82f8a26c7be7e689ec5f9c1eb7e9a2964dbd5f66d25a2511ca0bcbdbae39392855f52600260205261015d816003865f2001610ba4565b61016984518094610aaa565b6020830190610aaa565ba2005b83516307a92f1960e51b8152fd5b602190634e487b7160e01b5f525260245ffd5b50905163e93ba22360e01b8152fd5b509051635c427cd960e01b8152fd5b90505f54163314155f6100e3565b5f80fd5b905082346101c357602090816003193601126101c3576101e5610a66565b915f608086516101f481610b52565b8281528284820152606088820152826060820152015260018060a01b03809316805f5282825260ff865f205416156103a9575f5260028152845f209185519561023c87610b52565b84845416875260019160018501549084890191825260028601835180955f9083549361026785610acb565b948585528a6001821691825f1461038757505060011461034b575b505061029092500385610b82565b82890193845260ff6003870154169560608a01966003811015610338578752015460808901908152825185815298519096168885015251908701525160a06060870152805160c087018190525f958795919491939192905b8588106103205750505060e0945061030c905f868587010152516080850190610aaa565b5160a0830152601f01601f19168101030190f35b878201830151898901820152968201968896506102e8565b602183634e487b7160e01b5f525260245ffd5b8992505f52815f20905f915b85831061036f57505061029093508201018c80610282565b8054838b018501528994508a93909201918101610357565b925093505061029094915060ff191682840152151560051b8201018c80610282565b855163e93ba22360e01b81528390fd5b8284346101c35760203660031901126101c3576103d4610a66565b906103dd610bbc565b6001600160a01b039182169283156104305750505f54826bffffffffffffffffffffffff60a01b8216175f55167f8be0079c531659141344cd1fd0a4f28419497f9722a3daafe3b4186f6b6457e05f80a3005b905f6024925191631e4fbdf760e01b8352820152fd5b5050346101c35760203660031901126101c35781355f9081526003602052819020546001600160a01b0316908115610482576020925051908152f35b5163e93ba22360e01b81529050fd5b82346101c3575f3660031901126101c35760015490516001600160a01b039091168152602090f35b5050346101c35760203660031901126101c3576020916001600160a01b036104df610a66565b165f52825260ff815f20541690519015158152f35b82346101c3575f3660031901126101c3575f5490516001600160a01b039091168152602090f35b8284346101c35760803660031901126101c357610536610a66565b67ffffffffffffffff6024356044358281116101c3576105599036908601610a7c565b9590936064359560018060a01b03978888168098036101c35760019289845416331415806107d0575b6107c057891696875f5260209683885260ff865f2054166107b057865f52600388528a865f2054166107a0578551916105ba83610b52565b8a83528883019388855282811161078d57601f19908851926105e38c84601f8501160185610b82565b81845236828201116101c357815f928d92838701378401015287840191825260608401925f8452608085019d8e4290528c5f5260028c52895f20955116956bffffffffffffffffffffffff60a01b9687875416178655518886015560028501925191825191821161077a576106628261065c8654610acb565b86610b03565b8b90601f831160011461071d57508190610691935f92610712575b50508160011b915f199060031b1c19161790565b90555b5160038110156106ff577fae6249e1b0de18c2723755a5833e4712be14aaa5c1d2b8923223ad3784964f6e98999a6106d0859260038501610ba4565b51910155845f526003865287845f2091825416179055865f528452815f209060ff1982541617905551908152a3005b602184634e487b7160e01b5f525260245ffd5b015190508f8061067d565b9089938d928416865f52835f20935f905b828210610763575050841161074b575b505050811b019055610694565b01515f1960f88460031b161c191690558e808061073e565b8385015186558d979095019493840193018f61072e565b604188634e487b7160e01b5f525260245ffd5b604186634e487b7160e01b5f525260245ffd5b85516308f13b2160e41b81528490fd5b855163704c69f760e11b81528490fd5b8451635c427cd960e01b81528390fd5b50895f5416331415610582565b346101c3575f3660031901126101c3576107f5610bbc565b5f80546001600160a01b0319811682556001600160a01b03167f8be0079c531659141344cd1fd0a4f28419497f9722a3daafe3b4186f6b6457e08280a3005b346101c35760203660031901126101c35761084d610a66565b610855610bbc565b600180546001600160a01b0319166001600160a01b0392909216919091179055005b839085346101c357826003193601126101c357610892610a66565b9267ffffffffffffffff916024358381116101c3576108b49036908301610a7c565b93909160018060a01b0380971695865f526020976002895280865f2054163314159081610a58575b50610a4c5750855f5280875260ff845f20541615610a3e57855f52600287526002845f2001918511610a2b575061091d846109178354610acb565b83610b03565b5f601f85116001146109a3577fd4fb7228f406c1ef25a38931e1ea4351174db86d2fd8923dd9383f38547d2bcf9596928592610970848080955f91610998575b508160011b915f199060031b1c19161790565b90555b8451958487958652850152848401375f828201840152601f01601f19168101030190a2005b90508401358c61095d565b601f19851690825f52875f20915f5b818110610a145750928693927fd4fb7228f406c1ef25a38931e1ea4351174db86d2fd8923dd9383f38547d2bcf98999592858095106109fb575b5050600183811b019055610973565b8301355f19600386901b60f8161c1916905589806109ec565b9192896001819286890135815501940192016109b2565b604190634e487b7160e01b5f525260245ffd5b835163e93ba22360e01b8152fd5b635c427cd960e01b8152fd5b90505f5416331415896108dc565b600435906001600160a01b03821682036101c357565b9181601f840112156101c35782359167ffffffffffffffff83116101c357602083818601950101116101c357565b906003821015610ab75752565b634e487b7160e01b5f52602160045260245ffd5b90600182811c92168015610af9575b6020831014610ae557565b634e487b7160e01b5f52602260045260245ffd5b91607f1691610ada565b601f8211610b1057505050565b5f5260205f20906020601f840160051c83019310610b48575b601f0160051c01905b818110610b3d575050565b5f8155600101610b32565b9091508190610b29565b60a0810190811067ffffffffffffffff821117610b6e57604052565b634e487b7160e01b5f52604160045260245ffd5b90601f8019910116810190811067ffffffffffffffff821117610b6e57604052565b906003811015610ab75760ff80198354169116179055565b5f546001600160a01b03163303610bcf57565b60405163118cdaa760e01b8152336004820152602490fdfea2646970667358221220461a6e1f371709e06b16b91ebc6875929b6c7c4f48c6767a0797ebaae1e38bb264736f6c63430008180033","linkReferences":{}},"methodIdentifiers":{"factory()":"c45a0155","getAgent(address)":"fb3551ff","getAgentByFid(uint256)":"db7fd422","isRegistered(address)":"c3c5a547","owner()":"8da5cb5b","registerAgent(address,uint256,string,address)":"729c441c","renounceOwnership()":"715018a6","setFactory(address)":"5bb47808","transferOwnership(address)":"f2fde38b","updateAgentStatus(address,uint8)":"fc08a7da","updateAgentURI(address,string)":"4f1590cb"},"id":49}