{"abi":[{"type":"constructor","inputs":[{"name":"_oracle","type":"address","internalType":"address"}],"stateMutability":"nonpayable"},{"type":"function","name":"DIAMOND_THRESHOLD","inputs":[],"outputs":[{"name":"","type":"uint256","internalType":"uint256"}],"stateMutability":"view"},{"type":"function","name":"ENGAGEMENT_WEIGHT","inputs":[],"outputs":[{"name":"","type":"uint256","internalType":"uint256"}],"stateMutability":"view"},{"type":"function","name":"GOLD_THRESHOLD","inputs":[],"outputs":[{"name":"","type":"uint256","internalType":"uint256"}],"stateMutability":"view"},{"type":"function","name":"MAX_SCORE","inputs":[],"outputs":[{"name":"","type":"uint256","internalType":"uint256"}],"stateMutability":"view"},{"type":"function","name":"PLATINUM_THRESHOLD","inputs":[],"outputs":[{"name":"","type":"uint256","internalType":"uint256"}],"stateMutability":"view"},{"type":"function","name":"QUALITY_WEIGHT","inputs":[],"outputs":[{"name":"","type":"uint256","internalType":"uint256"}],"stateMutability":"view"},{"type":"function","name":"RELIABILITY_WEIGHT","inputs":[],"outputs":[{"name":"","type":"uint256","internalType":"uint256"}],"stateMutability":"view"},{"type":"function","name":"REVENUE_WEIGHT","inputs":[],"outputs":[{"name":"","type":"uint256","internalType":"uint256"}],"stateMutability":"view"},{"type":"function","name":"SILVER_THRESHOLD","inputs":[],"outputs":[{"name":"","type":"uint256","internalType":"uint256"}],"stateMutability":"view"},{"type":"function","name":"TRADING_WEIGHT","inputs":[],"outputs":[{"name":"","type":"uint256","internalType":"uint256"}],"stateMutability":"view"},{"type":"function","name":"WEIGHT_DENOMINATOR","inputs":[],"outputs":[{"name":"","type":"uint256","internalType":"uint256"}],"stateMutability":"view"},{"type":"function","name":"getScore","inputs":[{"name":"agent","type":"address","internalType":"address"},{"name":"epoch","type":"uint256","internalType":"uint256"}],"outputs":[{"name":"","type":"tuple","internalType":"struct CEOSScore.ScoreBreakdown","components":[{"name":"trading","type":"uint256","internalType":"uint256"},{"name":"engagement","type":"uint256","internalType":"uint256"},{"name":"revenue","type":"uint256","internalType":"uint256"},{"name":"quality","type":"uint256","internalType":"uint256"},{"name":"reliability","type":"uint256","internalType":"uint256"},{"name":"totalScore","type":"uint256","internalType":"uint256"},{"name":"tier","type":"uint8","internalType":"uint8"}]}],"stateMutability":"view"},{"type":"function","name":"getTotalScore","inputs":[{"name":"epoch","type":"uint256","internalType":"uint256"}],"outputs":[{"name":"","type":"uint256","internalType":"uint256"}],"stateMutability":"view"},{"type":"function","name":"oracle","inputs":[],"outputs":[{"name":"","type":"address","internalType":"address"}],"stateMutability":"view"},{"type":"function","name":"owner","inputs":[],"outputs":[{"name":"","type":"address","internalType":"address"}],"stateMutability":"view"},{"type":"function","name":"renounceOwnership","inputs":[],"outputs":[],"stateMutability":"nonpayable"},{"type":"function","name":"setOracle","inputs":[{"name":"newOracle","type":"address","internalType":"address"}],"outputs":[],"stateMutability":"nonpayable"},{"type":"function","name":"submitScores","inputs":[{"name":"epoch","type":"uint256","internalType":"uint256"},{"name":"agents","type":"address[]","internalType":"address[]"},{"name":"trading","type":"uint256[]","internalType":"uint256[]"},{"name":"engagement","type":"uint256[]","internalType":"uint256[]"},{"name":"revenue","type":"uint256[]","internalType":"uint256[]"},{"name":"quality","type":"uint256[]","internalType":"uint256[]"},{"name":"reliability","type":"uint256[]","internalType":"uint256[]"}],"outputs":[],"stateMutability":"nonpayable"},{"type":"function","name":"transferOwnership","inputs":[{"name":"newOwner","type":"address","internalType":"address"}],"outputs":[],"stateMutability":"nonpayable"},{"type":"event","name":"OracleUpdated","inputs":[{"name":"oldOracle","type":"address","indexed":true,"internalType":"address"},{"name":"newOracle","type":"address","indexed":true,"internalType":"address"}],"anonymous":false},{"type":"event","name":"OwnershipTransferred","inputs":[{"name":"previousOwner","type":"address","indexed":true,"internalType":"address"},{"name":"newOwner","type":"address","indexed":true,"internalType":"address"}],"anonymous":false},{"type":"event","name":"ScoresSubmitted","inputs":[{"name":"epoch","type":"uint256","indexed":true,"internalType":"uint256"},{"name":"count","type":"uint256","indexed":false,"internalType":"uint256"}],"anonymous":false},{"type":"event","name":"TierAchieved","inputs":[{"name":"agent","type":"address","indexed":true,"internalType":"address"},{"name":"epoch","type":"uint256","indexed":true,"internalType":"uint256"},{"name":"tier","type":"uint8","indexed":false,"internalType":"uint8"}],"anonymous":false},{"type":"error","name":"ArrayLengthMismatch","inputs":[]},{"type":"error","name":"InvalidScoreValue","inputs":[]},{"type":"error","name":"OwnableInvalidOwner","inputs":[{"name":"owner","type":"address","internalType":"address"}]},{"type":"error","name":"OwnableUnauthorizedAccount","inputs":[{"name":"account","type":"address","internalType":"address"}]},{"type":"error","name":"ScoresAlreadySubmitted","inputs":[]},{"type":"error","name":"UnauthorizedOracle","inputs":[]}],"bytecode":{"object":"0x6080346100c257601f610b3138819003918201601f19168301916001600160401b038311848410176100c6578084926020946040528339810103126100c257516001600160a01b0390818116908190036100c25733156100aa575f5460018060a01b03199033828216175f55604051933391167f8be0079c531659141344cd1fd0a4f28419497f9722a3daafe3b4186f6b6457e05f80a36001541617600155610a5690816100db8239f35b604051631e4fbdf760e01b81525f6004820152602490fd5b5f80fd5b634e487b7160e01b5f52604160045260245ffdfe6080806040526004361015610012575f80fd5b5f3560e01c9081630b8df9f1146108b55750806312812d871461088b5780631f1a30871461086f57806327ff62231461072e5780633ada01f61461085357806356973974146108375780635b77b3871461019757806365ce7b081461081b578063715018a6146107c45780637adbf9731461075b5780637dc0d1d014610733578063809b18d51461072e5780638da5cb5b146107075780638dc86f04146102a95780639d54080a146101b8578063bb4efa721461019c578063c1a0db3014610197578063caaffae91461017b5763f2fde38b146100ed575f80fd5b3461017757602036600319011261017757610106610907565b61010e610982565b6001600160a01b0390811690811561015f575f54826bffffffffffffffffffffffff60a01b8216175f55167f8be0079c531659141344cd1fd0a4f28419497f9722a3daafe3b4186f6b6457e05f80a3005b604051631e4fbdf760e01b81525f6004820152602490fd5b5f80fd5b34610177575f366003190112610177576020604051611d4c8152f35b6108eb565b34610177575f3660031901126101775760206040516105dc8152f35b34610177576040366003190112610177576101d1610907565b5f60c06101dc61094e565b8281528260208201528260408201528260608201528260808201528260a0820152015260018060a01b03165f52600260205260405f206024355f5260205260e060405f2060ff61022a61094e565b825492838252600181015460208301908152600282015460408401908152600383015490606085019182526004840154926080860193845260c087600660058801549760a08a0198895201541696019586526040519788525160208801525160408701525160608601525160808501525160a0840152511660c0820152f35b346101775760e03660031901126101775767ffffffffffffffff602435818111610177576102db90369060040161091d565b9190604435828111610177576102f590369060040161091d565b9190926064358181116101775761031090369060040161091d565b936084358381116101775761032990369060040161091d565b909660a4358581116101775761034390369060040161091d565b94909560c4359081116101775761035e90369060040161091d565b96909260018060a01b0360015416331415806106f3575b6106e1576004355f52600460205260ff60405f2054166106cf57858c148015906106c5575b80156106bb575b80156106b1575b80156106a7575b61069557999897969594939291905f9a5f9a5b8d808d1061041e578d6004355f52600360205260405f2055600460205260405f20600160ff198254161790556040519081527ffed6c079253cd709a6f28f31cdb366da1fe33ec5e2668d6a4047e3e6b7ed0b3c602060043592a2005b8c610436918c9d9e9f939495969798999a9b9c6109ad565b35906001600160a01b038216820361017757898b918f938f610487866104778f988f94818f9b818f93610470826104779461047f976109ad565b359e6109ad565b35968d6109ad565b35978d6109ad565b35956127108111801561068a575b801561067f575b8015610674575b8015610669575b61065757610bb8808202908282041482151715610643576109c4808402908482041484151715610643576104dd916109d1565b6107d0808702908782041487151715610643576104f9916109d1565b6105dc80880290888204148815171561064357610515916109d1565b966103e89681888102048814821517156106435761271061053e60019a6105f19a8502906109d1565b0496610549886109de565b9461055261094e565b94855260208501526040840152606083015260808201528460a082015260ff821660c0820152868060a01b0383165f5260ff60c0600660028060205260405f206004355f5260205260405f20908551825560208601518c830155604086015190820155606085015160038201556080850151600482015560a08501516005820155019201511660ff1982541617905560ff8116610603575b50506109d1565b9c019a999897969594939291906103c2565b60ff604051911681527ffaec2aa53a623e5f40ce813c258de8d151be669ecdf9309dd1f78a9e408e0d5a602060043593888060a01b031692a35f806105ea565b634e487b7160e01b5f52601160045260245ffd5b60405163cd1220fb60e01b8152600490fd5b5061271087116104aa565b5061271086116104a3565b50612710851161049c565b506127108211610495565b60405163512509d360e11b8152600490fd5b50878c14156103af565b50868c14156103a8565b50848c14156103a1565b50898c141561039a565b60405163025099fd60e21b8152600490fd5b60405163db8d1fb760e01b8152600490fd5b505f546001600160a01b0316331415610375565b34610177575f366003190112610177575f546040516001600160a01b039091168152602090f35b6108cf565b34610177575f366003190112610177576001546040516001600160a01b039091168152602090f35b3461017757602036600319011261017757610774610907565b61077c610982565b600180546001600160a01b039283166001600160a01b0319821681179092559091167f078c3b417dadf69374a59793b829c52001247130433427049317bde56607b1b75f80a3005b34610177575f366003190112610177576107dc610982565b5f80546001600160a01b0319811682556001600160a01b03167f8be0079c531659141344cd1fd0a4f28419497f9722a3daafe3b4186f6b6457e08280a3005b34610177575f3660031901126101775760206040516107d08152f35b34610177575f3660031901126101775760206040516113888152f35b34610177575f366003190112610177576020604051610bb88152f35b34610177575f3660031901126101775760206040516103e88152f35b34610177576020366003190112610177576004355f526003602052602060405f2054604051908152f35b34610177575f366003190112610177578061232860209252f35b34610177575f3660031901126101775760206040516127108152f35b34610177575f3660031901126101775760206040516109c48152f35b600435906001600160a01b038216820361017757565b9181601f840112156101775782359167ffffffffffffffff8311610177576020808501948460051b01011161017757565b6040519060e0820182811067ffffffffffffffff82111761096e57604052565b634e487b7160e01b5f52604160045260245ffd5b5f546001600160a01b0316330361099557565b60405163118cdaa760e01b8152336004820152602490fd5b91908110156109bd5760051b0190565b634e487b7160e01b5f52603260045260245ffd5b9190820180921161064357565b612328811015610a1a57611d4c811015610a1457611388811015610a0e576109c41115610a09575f90565b600190565b50600290565b50600390565b5060049056fea26469706673582212209df9116cb928de03d328c598f59a0aaf0fef2668fec73b4164a6db71fc8aaca464736f6c63430008180033","linkReferences":{}},"methodIdentifiers":{"DIAMOND_THRESHOLD()":"0b8df9f1","ENGAGEMENT_WEIGHT()":"5b77b387","GOLD_THRESHOLD()":"56973974","MAX_SCORE()":"27ff6223","PLATINUM_THRESHOLD()":"caaffae9","QUALITY_WEIGHT()":"bb4efa72","RELIABILITY_WEIGHT()":"1f1a3087","REVENUE_WEIGHT()":"65ce7b08","SILVER_THRESHOLD()":"c1a0db30","TRADING_WEIGHT()":"3ada01f6","WEIGHT_DENOMINATOR()":"809b18d5","getScore(address,uint256)":"9d54080a","getTotalScore(uint256)":"12812d87","oracle()":"7dc0d1d0","owner()":"8da5cb5b","renounceOwnership()":"715018a6","setOracle(address)":"7adbf973","submitScores(uint256,address[],uint256[],uint256[],uint256[],uint256[],uint256[])":"8dc86f04","transferOwnership(address)":"f2fde38b"},"id":51}