{"abi":[{"type":"constructor","inputs":[{"name":"_oracle","type":"address","internalType":"address"}],"stateMutability":"nonpayable"},{"type":"function","name":"ENGAGEMENT_WEIGHT","inputs":[],"outputs":[{"name":"","type":"uint256","internalType":"uint256"}],"stateMutability":"view"},{"type":"function","name":"GROWTH_WEIGHT","inputs":[],"outputs":[{"name":"","type":"uint256","internalType":"uint256"}],"stateMutability":"view"},{"type":"function","name":"MAX_SCORE","inputs":[],"outputs":[{"name":"","type":"uint256","internalType":"uint256"}],"stateMutability":"view"},{"type":"function","name":"QUALITY_WEIGHT","inputs":[],"outputs":[{"name":"","type":"uint256","internalType":"uint256"}],"stateMutability":"view"},{"type":"function","name":"UPTIME_WEIGHT","inputs":[],"outputs":[{"name":"","type":"uint256","internalType":"uint256"}],"stateMutability":"view"},{"type":"function","name":"WEIGHT_DENOMINATOR","inputs":[],"outputs":[{"name":"","type":"uint256","internalType":"uint256"}],"stateMutability":"view"},{"type":"function","name":"getScore","inputs":[{"name":"creator","type":"address","internalType":"address"},{"name":"epoch","type":"uint256","internalType":"uint256"}],"outputs":[{"name":"","type":"tuple","internalType":"struct ICreatorScore.ScoreBreakdown","components":[{"name":"engagement","type":"uint256","internalType":"uint256"},{"name":"growth","type":"uint256","internalType":"uint256"},{"name":"quality","type":"uint256","internalType":"uint256"},{"name":"uptime","type":"uint256","internalType":"uint256"},{"name":"totalScore","type":"uint256","internalType":"uint256"}]}],"stateMutability":"view"},{"type":"function","name":"getTotalScore","inputs":[{"name":"epoch","type":"uint256","internalType":"uint256"}],"outputs":[{"name":"","type":"uint256","internalType":"uint256"}],"stateMutability":"view"},{"type":"function","name":"oracle","inputs":[],"outputs":[{"name":"","type":"address","internalType":"address"}],"stateMutability":"view"},{"type":"function","name":"owner","inputs":[],"outputs":[{"name":"","type":"address","internalType":"address"}],"stateMutability":"view"},{"type":"function","name":"renounceOwnership","inputs":[],"outputs":[],"stateMutability":"nonpayable"},{"type":"function","name":"setOracle","inputs":[{"name":"newOracle","type":"address","internalType":"address"}],"outputs":[],"stateMutability":"nonpayable"},{"type":"function","name":"submitScores","inputs":[{"name":"epoch","type":"uint256","internalType":"uint256"},{"name":"creators","type":"address[]","internalType":"address[]"},{"name":"engagement","type":"uint256[]","internalType":"uint256[]"},{"name":"growth","type":"uint256[]","internalType":"uint256[]"},{"name":"quality","type":"uint256[]","internalType":"uint256[]"},{"name":"uptime","type":"uint256[]","internalType":"uint256[]"}],"outputs":[],"stateMutability":"nonpayable"},{"type":"function","name":"transferOwnership","inputs":[{"name":"newOwner","type":"address","internalType":"address"}],"outputs":[],"stateMutability":"nonpayable"},{"type":"event","name":"OracleUpdated","inputs":[{"name":"oldOracle","type":"address","indexed":false,"internalType":"address"},{"name":"newOracle","type":"address","indexed":false,"internalType":"address"}],"anonymous":false},{"type":"event","name":"OwnershipTransferred","inputs":[{"name":"previousOwner","type":"address","indexed":true,"internalType":"address"},{"name":"newOwner","type":"address","indexed":true,"internalType":"address"}],"anonymous":false},{"type":"event","name":"ScoresSubmitted","inputs":[{"name":"epoch","type":"uint256","indexed":true,"internalType":"uint256"},{"name":"creatorCount","type":"uint256","indexed":false,"internalType":"uint256"}],"anonymous":false},{"type":"error","name":"ArrayLengthMismatch","inputs":[]},{"type":"error","name":"InvalidScoreValue","inputs":[]},{"type":"error","name":"OwnableInvalidOwner","inputs":[{"name":"owner","type":"address","internalType":"address"}]},{"type":"error","name":"OwnableUnauthorizedAccount","inputs":[{"name":"account","type":"address","internalType":"address"}]},{"type":"error","name":"ScoresAlreadySubmitted","inputs":[]},{"type":"error","name":"UnauthorizedOracle","inputs":[]}],"bytecode":{"object":"0x6080346100c257601f61095538819003918201601f19168301916001600160401b038311848410176100c6578084926020946040528339810103126100c257516001600160a01b0390818116908190036100c25733156100aa575f5460018060a01b03199033828216175f55604051933391167f8be0079c531659141344cd1fd0a4f28419497f9722a3daafe3b4186f6b6457e05f80a3600154161760015561087a90816100db8239f35b604051631e4fbdf760e01b81525f6004820152602490fd5b5f80fd5b634e487b7160e01b5f52604160045260245ffdfe6080806040526004361015610012575f80fd5b5f3560e01c90816312812d87146107175750806327ff6223146105ce5780635b77b387146106fb578063715018a6146106a45780637adbf973146106335780637b28122f146106175780637dc0d1d0146105ef5780637eaeb945146105d3578063809b18d5146105ce5780638da5cb5b146105a7578063980789731461021b5780639d54080a14610160578063bb4efa72146101445763f2fde38b146100b6575f80fd5b34610140576020366003190112610140576100cf610759565b6100d76107d4565b6001600160a01b03908116908115610128575f54826bffffffffffffffffffffffff60a01b8216175f55167f8be0079c531659141344cd1fd0a4f28419497f9722a3daafe3b4186f6b6457e05f80a3005b604051631e4fbdf760e01b81525f6004820152602490fd5b5f80fd5b34610140575f3660031901126101405760206040516109c48152f35b3461014057604036600319011261014057610179610759565b5f60806101846107a0565b828152826020820152826040820152826060820152015260018060a01b03165f52600260205260405f206024355f5260205260a060405f206101c46107a0565b81549182825260018101546020830190815260028201549060408401918252608060046003850154946060870195865201549401938452604051948552516020850152516040840152516060830152516080820152f35b346101405760c03660031901126101405767ffffffffffffffff602480358281116101405761024e90369060040161076f565b92906044358281116101405761026890369060040161076f565b9290936064358281116101405761028390369060040161076f565b9190926084358181116101405761029e90369060040161076f565b909160a435908111610140576102b890369060040161076f565b6001549198916001600160a01b031633141580610593575b610581576004355f52600460205260ff60405f20541661056f57818b14801590610565575b801561055b575b8015610551575b61053f579897969594939291905f995f995b8c808c10610371578c6004355f52600360205260405f2055600460205260405f20600160ff198254161790556040519081527ffed6c079253cd709a6f28f31cdb366da1fe33ec5e2668d6a4047e3e6b7ed0b3c602060043592a2005b8b610388918b9c9d9e939495969798999a9b6107ff565b35906001600160a01b038216820361014057898c92888f80886103ca8f938d6103c3828f976103bc8f6103d19a84916107ff565b359b6107ff565b35966107ff565b35976107ff565b359061271084118015610534575b8015610529575b801561051e575b61050c57610fa08085029085820414851517156104f9576107d0908183029183830414831517156104e6579061042291610823565b6109c4908188029188830414881517156104e6579061044091610823565b6105dc83818102048114841517156104e6579260049261271061046f6104d599979460019b9997850290610823565b04966104796107a0565b95865260208601918252604086019081526060860192835260808601938885528a8060a01b03165f526002918260205260405f2086355f5260205260405f2096518755518a870155519085015551600384015551910155610823565b9b0199989796959493929190610315565b8d634e487b7160e01b5f5260116004525ffd5b8c634e487b7160e01b5f5260116004525ffd5b60405163cd1220fb60e01b8152600490fd5b5061271082116103ed565b5061271086116103e6565b5061271081116103df565b60405163512509d360e11b8152600490fd5b50808b1415610303565b50828b14156102fc565b50858b14156102f5565b60405163025099fd60e21b8152600490fd5b60405163db8d1fb760e01b8152600490fd5b505f546001600160a01b03163314156102d0565b34610140575f366003190112610140575f546040516001600160a01b039091168152602090f35b61073d565b34610140575f3660031901126101405760206040516105dc8152f35b34610140575f366003190112610140576001546040516001600160a01b039091168152602090f35b34610140575f3660031901126101405760206040516107d08152f35b34610140576020366003190112610140577f078c3b417dadf69374a59793b829c52001247130433427049317bde56607b1b7604061066f610759565b6106776107d4565b600180546001600160a01b039283166001600160a01b0319821681179092558351921682526020820152a1005b34610140575f366003190112610140576106bc6107d4565b5f80546001600160a01b0319811682556001600160a01b03167f8be0079c531659141344cd1fd0a4f28419497f9722a3daafe3b4186f6b6457e08280a3005b34610140575f366003190112610140576020604051610fa08152f35b34610140576020366003190112610140576020906004355f526003825260405f20548152f35b34610140575f3660031901126101405760206040516127108152f35b600435906001600160a01b038216820361014057565b9181601f840112156101405782359167ffffffffffffffff8311610140576020808501948460051b01011161014057565b6040519060a0820182811067ffffffffffffffff8211176107c057604052565b634e487b7160e01b5f52604160045260245ffd5b5f546001600160a01b031633036107e757565b60405163118cdaa760e01b8152336004820152602490fd5b919081101561080f5760051b0190565b634e487b7160e01b5f52603260045260245ffd5b9190820180921161083057565b634e487b7160e01b5f52601160045260245ffdfea264697066735822122021c15b53649f0a75b7e81387b1357eaa84fe53f11166649e7b931ca607dda5ff64736f6c63430008180033","linkReferences":{}},"methodIdentifiers":{"ENGAGEMENT_WEIGHT()":"5b77b387","GROWTH_WEIGHT()":"7b28122f","MAX_SCORE()":"27ff6223","QUALITY_WEIGHT()":"bb4efa72","UPTIME_WEIGHT()":"7eaeb945","WEIGHT_DENOMINATOR()":"809b18d5","getScore(address,uint256)":"9d54080a","getTotalScore(uint256)":"12812d87","oracle()":"7dc0d1d0","owner()":"8da5cb5b","renounceOwnership()":"715018a6","setOracle(address)":"7adbf973","submitScores(uint256,address[],uint256[],uint256[],uint256[],uint256[])":"98078973","transferOwnership(address)":"f2fde38b"},"id":52}