{"abi":[{"type":"constructor","inputs":[],"stateMutability":"nonpayable"},{"type":"function","name":"addValidation","inputs":[{"name":"tokenId","type":"uint256","internalType":"uint256"},{"name":"skillId","type":"string","internalType":"string"},{"name":"passed","type":"bool","internalType":"bool"}],"outputs":[],"stateMutability":"nonpayable"},{"type":"function","name":"approve","inputs":[{"name":"to","type":"address","internalType":"address"},{"name":"tokenId","type":"uint256","internalType":"uint256"}],"outputs":[],"stateMutability":"nonpayable"},{"type":"function","name":"authorizedMinters","inputs":[{"name":"","type":"address","internalType":"address"}],"outputs":[{"name":"","type":"bool","internalType":"bool"}],"stateMutability":"view"},{"type":"function","name":"balanceOf","inputs":[{"name":"owner","type":"address","internalType":"address"}],"outputs":[{"name":"","type":"uint256","internalType":"uint256"}],"stateMutability":"view"},{"type":"function","name":"getApproved","inputs":[{"name":"tokenId","type":"uint256","internalType":"uint256"}],"outputs":[{"name":"","type":"address","internalType":"address"}],"stateMutability":"view"},{"type":"function","name":"getIdentity","inputs":[{"name":"tokenId","type":"uint256","internalType":"uint256"}],"outputs":[{"name":"","type":"tuple","internalType":"struct IERC8004TrustRegistry.AgentIdentity","components":[{"name":"agentAddress","type":"address","internalType":"address"},{"name":"agentURI","type":"string","internalType":"string"},{"name":"reputationScore","type":"uint256","internalType":"uint256"},{"name":"registeredAt","type":"uint256","internalType":"uint256"}]}],"stateMutability":"view"},{"type":"function","name":"getTokenByAgent","inputs":[{"name":"agent","type":"address","internalType":"address"}],"outputs":[{"name":"","type":"uint256","internalType":"uint256"}],"stateMutability":"view"},{"type":"function","name":"getValidations","inputs":[{"name":"tokenId","type":"uint256","internalType":"uint256"}],"outputs":[{"name":"","type":"tuple[]","internalType":"struct IERC8004TrustRegistry.Validation[]","components":[{"name":"skillId","type":"string","internalType":"string"},{"name":"passed","type":"bool","internalType":"bool"},{"name":"validatedAt","type":"uint256","internalType":"uint256"}]}],"stateMutability":"view"},{"type":"function","name":"isApprovedForAll","inputs":[{"name":"owner","type":"address","internalType":"address"},{"name":"operator","type":"address","internalType":"address"}],"outputs":[{"name":"","type":"bool","internalType":"bool"}],"stateMutability":"view"},{"type":"function","name":"mintIdentity","inputs":[{"name":"agent","type":"address","internalType":"address"},{"name":"agentURI","type":"string","internalType":"string"}],"outputs":[{"name":"tokenId","type":"uint256","internalType":"uint256"}],"stateMutability":"nonpayable"},{"type":"function","name":"name","inputs":[],"outputs":[{"name":"","type":"string","internalType":"string"}],"stateMutability":"view"},{"type":"function","name":"owner","inputs":[],"outputs":[{"name":"","type":"address","internalType":"address"}],"stateMutability":"view"},{"type":"function","name":"ownerOf","inputs":[{"name":"tokenId","type":"uint256","internalType":"uint256"}],"outputs":[{"name":"","type":"address","internalType":"address"}],"stateMutability":"view"},{"type":"function","name":"renounceOwnership","inputs":[],"outputs":[],"stateMutability":"nonpayable"},{"type":"function","name":"safeTransferFrom","inputs":[{"name":"from","type":"address","internalType":"address"},{"name":"to","type":"address","internalType":"address"},{"name":"tokenId","type":"uint256","internalType":"uint256"}],"outputs":[],"stateMutability":"nonpayable"},{"type":"function","name":"safeTransferFrom","inputs":[{"name":"from","type":"address","internalType":"address"},{"name":"to","type":"address","internalType":"address"},{"name":"tokenId","type":"uint256","internalType":"uint256"},{"name":"data","type":"bytes","internalType":"bytes"}],"outputs":[],"stateMutability":"nonpayable"},{"type":"function","name":"setApprovalForAll","inputs":[{"name":"operator","type":"address","internalType":"address"},{"name":"approved","type":"bool","internalType":"bool"}],"outputs":[],"stateMutability":"nonpayable"},{"type":"function","name":"setAuthorizedMinter","inputs":[{"name":"minter","type":"address","internalType":"address"},{"name":"authorized","type":"bool","internalType":"bool"}],"outputs":[],"stateMutability":"nonpayable"},{"type":"function","name":"supportsInterface","inputs":[{"name":"interfaceId","type":"bytes4","internalType":"bytes4"}],"outputs":[{"name":"","type":"bool","internalType":"bool"}],"stateMutability":"view"},{"type":"function","name":"symbol","inputs":[],"outputs":[{"name":"","type":"string","internalType":"string"}],"stateMutability":"view"},{"type":"function","name":"tokenURI","inputs":[{"name":"tokenId","type":"uint256","internalType":"uint256"}],"outputs":[{"name":"","type":"string","internalType":"string"}],"stateMutability":"view"},{"type":"function","name":"transferFrom","inputs":[{"name":"from","type":"address","internalType":"address"},{"name":"to","type":"address","internalType":"address"},{"name":"tokenId","type":"uint256","internalType":"uint256"}],"outputs":[],"stateMutability":"nonpayable"},{"type":"function","name":"transferOwnership","inputs":[{"name":"newOwner","type":"address","internalType":"address"}],"outputs":[],"stateMutability":"nonpayable"},{"type":"function","name":"updateReputation","inputs":[{"name":"tokenId","type":"uint256","internalType":"uint256"},{"name":"score","type":"uint256","internalType":"uint256"}],"outputs":[],"stateMutability":"nonpayable"},{"type":"event","name":"Approval","inputs":[{"name":"owner","type":"address","indexed":true,"internalType":"address"},{"name":"approved","type":"address","indexed":true,"internalType":"address"},{"name":"tokenId","type":"uint256","indexed":true,"internalType":"uint256"}],"anonymous":false},{"type":"event","name":"ApprovalForAll","inputs":[{"name":"owner","type":"address","indexed":true,"internalType":"address"},{"name":"operator","type":"address","indexed":true,"internalType":"address"},{"name":"approved","type":"bool","indexed":false,"internalType":"bool"}],"anonymous":false},{"type":"event","name":"IdentityMinted","inputs":[{"name":"agent","type":"address","indexed":true,"internalType":"address"},{"name":"tokenId","type":"uint256","indexed":true,"internalType":"uint256"},{"name":"agentURI","type":"string","indexed":false,"internalType":"string"}],"anonymous":false},{"type":"event","name":"OwnershipTransferred","inputs":[{"name":"previousOwner","type":"address","indexed":true,"internalType":"address"},{"name":"newOwner","type":"address","indexed":true,"internalType":"address"}],"anonymous":false},{"type":"event","name":"ReputationUpdated","inputs":[{"name":"tokenId","type":"uint256","indexed":true,"internalType":"uint256"},{"name":"oldScore","type":"uint256","indexed":false,"internalType":"uint256"},{"name":"newScore","type":"uint256","indexed":false,"internalType":"uint256"}],"anonymous":false},{"type":"event","name":"Transfer","inputs":[{"name":"from","type":"address","indexed":true,"internalType":"address"},{"name":"to","type":"address","indexed":true,"internalType":"address"},{"name":"tokenId","type":"uint256","indexed":true,"internalType":"uint256"}],"anonymous":false},{"type":"event","name":"ValidationAdded","inputs":[{"name":"tokenId","type":"uint256","indexed":true,"internalType":"uint256"},{"name":"skillId","type":"string","indexed":false,"internalType":"string"},{"name":"passed","type":"bool","indexed":false,"internalType":"bool"}],"anonymous":false},{"type":"error","name":"ERC721IncorrectOwner","inputs":[{"name":"sender","type":"address","internalType":"address"},{"name":"tokenId","type":"uint256","internalType":"uint256"},{"name":"owner","type":"address","internalType":"address"}]},{"type":"error","name":"ERC721InsufficientApproval","inputs":[{"name":"operator","type":"address","internalType":"address"},{"name":"tokenId","type":"uint256","internalType":"uint256"}]},{"type":"error","name":"ERC721InvalidApprover","inputs":[{"name":"approver","type":"address","internalType":"address"}]},{"type":"error","name":"ERC721InvalidOperator","inputs":[{"name":"operator","type":"address","internalType":"address"}]},{"type":"error","name":"ERC721InvalidOwner","inputs":[{"name":"owner","type":"address","internalType":"address"}]},{"type":"error","name":"ERC721InvalidReceiver","inputs":[{"name":"receiver","type":"address","internalType":"address"}]},{"type":"error","name":"ERC721InvalidSender","inputs":[{"name":"sender","type":"address","internalType":"address"}]},{"type":"error","name":"ERC721NonexistentToken","inputs":[{"name":"tokenId","type":"uint256","internalType":"uint256"}]},{"type":"error","name":"IdentityAlreadyExists","inputs":[]},{"type":"error","name":"IdentityNotFound","inputs":[]},{"type":"error","name":"InvalidTokenId","inputs":[]},{"type":"error","name":"OwnableInvalidOwner","inputs":[{"name":"owner","type":"address","internalType":"address"}]},{"type":"error","name":"OwnableUnauthorizedAccount","inputs":[{"name":"account","type":"address","internalType":"address"}]},{"type":"error","name":"UnauthorizedMinter","inputs":[]}],"bytecode":{"object":"0x60803462000383576001600160401b0390604090808201838111828210176200036f5782526017815260207f4f70656e436c6177204167656e74204964656e7469747900000000000000000081830152825193838501858110828211176200036f578452600491828652634f43414960e01b818701528351908282116200027b575f54916001958684811c9416801562000364575b8385101462000351578190601f94858111620002fe575b5083908583116001146200029a575f926200028e575b50505f19600383901b1c191690861b175f555b86519283116200027b5784548581811c9116801562000270575b828210146200025d5782811162000215575b5080918311600114620001ad575081929394955f92620001a1575b50505f19600383901b1c191690831b1782555b33156200018b575060068054336001600160a01b0319821681179092559251926001600160a01b03167f8be0079c531659141344cd1fd0a4f28419497f9722a3daafe3b4186f6b6457e05f80a360075561184f9081620003888239f35b6024905f845191631e4fbdf760e01b8352820152fd5b015190505f806200011b565b90601f19831696855f52825f20925f905b898210620001fd5750508386979896959610620001e4575b505050811b0182556200012e565b01515f1960f88460031b161c191690555f8080620001d6565b808885968294968601518155019501930190620001be565b855f52815f208380860160051c82019284871062000253575b0160051c019086905b8281106200024757505062000100565b5f815501869062000237565b925081926200022e565b602285634e487b7160e01b5f525260245ffd5b90607f1690620000ee565b604184634e487b7160e01b5f525260245ffd5b015190505f80620000c1565b90889350601f198316915f8052855f20925f5b87828210620002e75750508411620002ce575b505050811b015f55620000d4565b01515f1960f88460031b161c191690555f8080620002c0565b8385015186558c97909501949384019301620002ad565b9091505f8052835f208580850160051c82019286861062000347575b918a91869594930160051c01915b82811062000338575050620000ab565b5f81558594508a910162000328565b925081926200031a565b602286634e487b7160e01b5f525260245ffd5b93607f169362000094565b634e487b7160e01b5f52604160045260245ffd5b5f80fdfe60808060405260049081361015610014575f80fd5b5f3560e01c90816301ffc9a7146111b3575080630675f763146110fc57806306fdde0314611055578063081812fc1461101b578063095ea7b314610f3a57806314d19d5314610c7b57806323b872dd14610c6457806342842e0e14610c3d578063434dbaee14610aef5780636352211e14610abf57806370a0823114610a67578063715018a614610a0c57806385e3f058146109265780638da5cb5b146108fe57806395d89b4114610820578063a22cb46514610778578063a96886f1146103a7578063aa2fe91b1461036a578063b88d4fde1461030a578063c87b56dd146102b5578063e985e9c514610263578063eaf5104014610204578063ed58bad8146101b15763f2fde38b14610126575f80fd5b346101ad5760203660031901126101ad5761013f61125b565b6101476117ed565b6001600160a01b039081169182156101965750600654826001600160601b0360a01b821617600655167f8be0079c531659141344cd1fd0a4f28419497f9722a3daafe3b4186f6b6457e05f80a3005b6024905f60405191631e4fbdf760e01b8352820152fd5b5f80fd5b346101ad5760403660031901126101ad576102026101cd61125b565b6101d56112b5565b906101de6117ed565b60018060a01b03165f52600c60205260405f209060ff801983541691151516179055565b005b50346101ad5760203660031901126101ad576001600160a01b0361022661125b565b1690815f52600b60205260ff60405f2054161561025457505f52600a602052602060405f2054604051908152f35b6040516369e0942b60e11b8152fd5b346101ad5760403660031901126101ad5761027c61125b565b610284611271565b9060018060a01b038091165f52600560205260405f2091165f52602052602060ff60405f2054166040519015158152f35b50346101ad5760203660031901126101ad576102d190356117b3565b505f6040516102df81611345565b526103066040516102ef81611345565b5f815260405191829160208352602083019061121d565b0390f35b50346101ad5760803660031901126101ad5761032461125b565b61032c611271565b9060643567ffffffffffffffff81116101ad57366023820112156101ad57610202938160246103609336930135910161139f565b9160443591611665565b346101ad5760203660031901126101ad576001600160a01b0361038b61125b565b165f52600c602052602060ff60405f2054166040519015158152f35b50346101ad5760403660031901126101ad576103c161125b565b67ffffffffffffffff6024358181116101ad576103e19036908501611287565b9092335f52600c60205260ff60405f2054161580610763575b6107525760018060a01b03938482165f52600b60205260ff60405f20541661074157600754935f19851461072e57600185016007558583161561071757845f5260026020528560405f20541690811515806106e4575b8785165f52600360205260405f2060018154019055865f5260026020528660405f20936001600160601b0360a01b948a881686825416179055898716907fddf252ad1be2c89b69c2b068fc378daa952ba7f163c4a11628f55a4df523b3ef5f80a46106cd57604051906104c282611329565b87851682526104d236878661139f565b602083019081525f6040840152426060840152875f52600860205260405f20938984511690855416178455519889519182116106ba575061051660018401546113d5565b98601f8a11610672575b602099508990601f83116001146105da5760606105c494848b9c98957fa23c6059fb98710ad930a2c63a75f002d8c23ca16869e8611c53a5c25e08a7649a98956003955f926105cf575b50505f1982861b1c1916600191821b17908501555b6040810151600285015501519101558383165f52600a89528660405f2055600b895260405f20600160ff198254161790556040519384938a85521695898401916114af565b0390a3604051908152f35b015190505f8061056a565b90600185015f528a5f20915f5b601f198516811061065b57506105c4946001857fa23c6059fb98710ad930a2c63a75f002d8c23ca16869e8611c53a5c25e08a7649a98956003958e9f9b9895606096601f19811610610644575b505050811b01600185015561057f565b01515f1983881b60f8161c191690555f8080610634565b91928c6001819286850151815501940192016105e7565b600184015f5260205f20601f830160051c81019a602084106106b0575b601f0160051c01995b8a81106106a55750610520565b5f8155600101610698565b909a508a9061068f565b604190634e487b7160e01b5f525260245ffd5b6040516339e3563760e11b81525f818a0152602490fd5b5f87815260046020526040902080546001600160a01b0319169055825f52600360205260405f205f198154019055610450565b604051633250574960e11b81525f81890152602490fd5b601187634e487b7160e01b5f525260245ffd5b6040516335a081ab60e11b81528690fd5b60405163955c501b60e01b81528590fd5b506006546001600160a01b03163314156103fa565b50346101ad5760403660031901126101ad5761079261125b565b61079a6112b5565b6001600160a01b039091169182156108085750335f52600560205260405f20825f526020526107d88160405f209060ff801983541691151516179055565b60405190151581527f17307eab39ab6107e8899845ad3d59bd9653f200f220920489ca2b5937696c3160203392a3005b604051630b61174360e31b8152908101839052602490fd5b346101ad575f3660031901126101ad576040515f60018260015492610844846113d5565b92838352602094856001821691825f146108de575050600114610883575b5061086f92500383611361565b61030660405192828493845283019061121d565b84915060015f527fb10e2d527612073b26eecdfd717e6a320cf44b4afac2b0732d9fcbe2b7fa0cf6905f915b8583106108c657505061086f935082010185610862565b805483890185015287945086939092019181016108af565b60ff19168582015261086f95151560051b85010192508791506108629050565b346101ad575f3660031901126101ad576006546040516001600160a01b039091168152602090f35b50346101ad57602090816003193601126101ad578035905f606060405161094c81611329565b8281528186820152826040820152015281158015610a00575b6109f157505f526008815260405f206040519061098182611329565b80546001600160a01b039081168352926109e06109a06001840161140d565b82850190815260036002850154946040870195865201549260608601938452604051968796828852511690860152516080604086015260a085019061121d565b915160608401525160808301520390f35b6040516307ed98ed60e31b8152fd5b50600754821015610965565b346101ad575f3660031901126101ad57610a246117ed565b600680546001600160a01b031981169091555f906001600160a01b03167f8be0079c531659141344cd1fd0a4f28419497f9722a3daafe3b4186f6b6457e08280a3005b50346101ad5760203660031901126101ad576001600160a01b03610a8961125b565b16908115610aa857505f526003602052602060405f2054604051908152f35b6024905f604051916322718ad960e21b8352820152fd5b50346101ad5760203660031901126101ad57610add602091356117b3565b6040516001600160a01b039091168152f35b50346101ad57602090816003193601126101ad57803580158015610c31575b610c21575f526009825260405f2080549167ffffffffffffffff83116106ba5750829060405192610b44838260051b0185611361565b80845282840180925f52835f205f915b838310610bd95750505050604051918083019381845251809452604083019360408160051b85010192915f955b828710610b8e5785850386f35b909192938280600192603f19898203018552875190604080610bb9606085519080865285019061121d565b938581015115158685015201519101529601920196019592919092610b81565b600386600192604099989951610bee816112f9565b610bf78661140d565b815260ff858701541615158382015260028601546040820152815201920192019190959495610b54565b506040516307ed98ed60e31b8152fd5b50600754811015610b0e565b346101ad57610202610c4e366112c4565b9060405192610c5c84611345565b5f8452611665565b346101ad57610202610c75366112c4565b916114cf565b50346101ad5760603660031901126101ad57803567ffffffffffffffff6024358181116101ad57610caf9036908501611287565b90916044358015158091036101ad57335f52602091600c835260ff60405f2054161580610f25575b610f145785158015610f08575b610ef757855f526009835260405f2060405191610d00836112f9565b610d0b36878961139f565b835284830190848252604084019242845280549068010000000000000000821015610ee45760018201808255821015610ed1575f526003875f209102019351998a519182116106ba5750610d5f84546113d5565b601f8111610e8e575b5085601f8211600114610e04579181610dd592600295947f3f26adf12f02def993cc7ace765d3e130409c622b8738dfcdef8ffb69dd46d2b9c9d5f92610df9575b50508160011b915f199060031b1c19161785555b511515600185019060ff801983541691151516179055565b51910155610df06040519485946040865260408601916114af565b918301520390a2005b015190505f80610da9565b601f1982169a855f52875f209b5f5b818110610e775750927f3f26adf12f02def993cc7ace765d3e130409c622b8738dfcdef8ffb69dd46d2b9b9c600296959360019383610dd59710610e5f575b505050811b018555610dbd565b01515f1960f88460031b161c191690555f8080610e52565b838301518e556001909d019c928901928901610e13565b845f52865f20601f830160051c810191888410610ec7575b601f0160051c01905b818110610ebc5750610d68565b5f8155600101610eaf565b9091508190610ea6565b60328c634e487b7160e01b5f525260245ffd5b60418c634e487b7160e01b5f525260245ffd5b6040516307ed98ed60e31b81528790fd5b50600754861015610ce4565b60405163955c501b60e01b81528790fd5b506006546001600160a01b0316331415610cd7565b50346101ad5760403660031901126101ad57610f5461125b565b90602435610f61816117b3565b33151580611008575b80610fdf575b610fc8576001600160a01b039384169382918591167f8c5be1e5ebec7d5bd14f71427d1e84f3dd0314c0f7b2291e5b200ac8c7c3b9255f80a45f5260205260405f20906001600160601b0360a01b8254161790555f80f35b60405163a9fbf51f60e01b81523381850152602490fd5b5060018060a01b0381165f52600560205260405f20335f5260205260ff60405f20541615610f70565b506001600160a01b038116331415610f6a565b50346101ad5760203660031901126101ad578035611038816117b3565b505f52602052602060018060a01b0360405f205416604051908152f35b346101ad575f3660031901126101ad576040515f80549082611076836113d5565b91828252602093600190856001821691825f146108de5750506001146110a3575061086f92500383611361565b5f808052859250907f290decd9548b62a8d60345a988386fc84ba6bc95484008f6362f93160ef3e5635b8583106110e457505061086f935082010185610862565b805483890185015287945086939092019181016110cd565b50346101ad5760403660031901126101ad5780359060243590335f52600c60205260ff60405f205416158061119e575b61118f5782158015611183575b6109f1575060407fd9f66501c000653403d74ddfa62a75c8dd44cc05d910ee81bf1d852262dd5fa191835f5260086020526002825f200190808254925582519182526020820152a2005b50600754831015611139565b60405163955c501b60e01b8152fd5b506006546001600160a01b031633141561112c565b82346101ad5760203660031901126101ad57359063ffffffff60e01b82168092036101ad576020916380ac58cd60e01b811490811561120c575b81156111fb575b5015158152f35b6301ffc9a760e01b149050836111f4565b635b5e139f60e01b811491506111ed565b91908251928382525f5b848110611247575050825f602080949584010152601f8019910116010190565b602081830181015184830182015201611227565b600435906001600160a01b03821682036101ad57565b602435906001600160a01b03821682036101ad57565b9181601f840112156101ad5782359167ffffffffffffffff83116101ad57602083818601950101116101ad57565b6024359081151582036101ad57565b60609060031901126101ad576001600160a01b039060043582811681036101ad579160243590811681036101ad579060443590565b6060810190811067ffffffffffffffff82111761131557604052565b634e487b7160e01b5f52604160045260245ffd5b6080810190811067ffffffffffffffff82111761131557604052565b6020810190811067ffffffffffffffff82111761131557604052565b90601f8019910116810190811067ffffffffffffffff82111761131557604052565b67ffffffffffffffff811161131557601f01601f191660200190565b9291926113ab82611383565b916113b96040519384611361565b8294818452818301116101ad578281602093845f960137010152565b90600182811c92168015611403575b60208310146113ef57565b634e487b7160e01b5f52602260045260245ffd5b91607f16916113e4565b9060405191825f825461141f816113d5565b908184526020946001916001811690815f1461148d575060011461144f575b50505061144d92500383611361565b565b5f90815285812095935091905b81831061147557505061144d93508201015f808061143e565b8554888401850152948501948794509183019161145c565b9250505061144d94925060ff191682840152151560051b8201015f808061143e565b908060209392818452848401375f828201840152601f01601f1916010190565b6001600160a01b03918216929091831561164d57815f52602092600284528260409583875f20541695331515806115bb575b506002908761158a575b825f5260038152885f2060018154019055835f5252865f20816001600160601b0360a01b825416179055857fddf252ad1be2c89b69c2b068fc378daa952ba7f163c4a11628f55a4df523b3ef5f80a416928383036115695750505050565b6064945051926364283d7b60e01b8452600484015260248301526044820152fd5b5f84815260046020526040812080546001600160a01b03191690558881526003825289902080545f1901905561150b565b919250908061160c575b156115d3579084915f611501565b8685876115f0576024915190637e27328960e01b82526004820152fd5b604491519063177e802f60e01b82523360048301526024820152fd5b503386148015611631575b806115c55750845f52600481523384885f205416146115c5565b50855f5260058152865f20335f52815260ff875f205416611617565b604051633250574960e11b81525f6004820152602490fd5b91926116728483856114cf565b813b61167f575b50505050565b604051630a85bd0160e11b8082523360048301526001600160a01b039485166024830152604482019590955260806064820152602095939092169391908590829081906116d090608483019061121d565b03815f885af15f9181611773575b5061173d575050503d5f14611735573d916116f883611383565b926117066040519485611361565b83523d5f8285013e5b8251928361173057604051633250574960e11b815260048101849052602490fd5b019050fd5b60609161170f565b9193506001600160e01b03199091160361175b57505f808080611679565b60249060405190633250574960e11b82526004820152fd5b9091508581813d83116117ac575b61178b8183611361565b810103126101ad57516001600160e01b0319811681036101ad57905f6116de565b503d611781565b5f818152600260205260409020546001600160a01b03169081156117d5575090565b60249060405190637e27328960e01b82526004820152fd5b6006546001600160a01b0316330361180157565b60405163118cdaa760e01b8152336004820152602490fdfea264697066735822122087b9f1d8979a38010fc867920a3db93acbf63562a0e2f303a03ba65c74cd45b364736f6c63430008180033","linkReferences":{}},"methodIdentifiers":{"addValidation(uint256,string,bool)":"14d19d53","approve(address,uint256)":"095ea7b3","authorizedMinters(address)":"aa2fe91b","balanceOf(address)":"70a08231","getApproved(uint256)":"081812fc","getIdentity(uint256)":"85e3f058","getTokenByAgent(address)":"eaf51040","getValidations(uint256)":"434dbaee","isApprovedForAll(address,address)":"e985e9c5","mintIdentity(address,string)":"a96886f1","name()":"06fdde03","owner()":"8da5cb5b","ownerOf(uint256)":"6352211e","renounceOwnership()":"715018a6","safeTransferFrom(address,address,uint256)":"42842e0e","safeTransferFrom(address,address,uint256,bytes)":"b88d4fde","setApprovalForAll(address,bool)":"a22cb465","setAuthorizedMinter(address,bool)":"ed58bad8","supportsInterface(bytes4)":"01ffc9a7","symbol()":"95d89b41","tokenURI(uint256)":"c87b56dd","transferFrom(address,address,uint256)":"23b872dd","transferOwnership(address)":"f2fde38b","updateReputation(uint256,uint256)":"0675f763"},"id":53}