{"abi":[{"type":"constructor","inputs":[{"name":"_swapRouter","type":"address","internalType":"address"},{"name":"_runToken","type":"address","internalType":"address"},{"name":"_protocolFeeRecipient","type":"address","internalType":"address"},{"name":"_poolFee","type":"uint24","internalType":"uint24"}],"stateMutability":"nonpayable"},{"type":"receive","stateMutability":"payable"},{"type":"function","name":"BPS_DENOMINATOR","inputs":[],"outputs":[{"name":"","type":"uint256","internalType":"uint256"}],"stateMutability":"view"},{"type":"function","name":"SPLIT_AGENT_BPS","inputs":[],"outputs":[{"name":"","type":"uint256","internalType":"uint256"}],"stateMutability":"view"},{"type":"function","name":"SPLIT_BUYBACK_BPS","inputs":[],"outputs":[{"name":"","type":"uint256","internalType":"uint256"}],"stateMutability":"view"},{"type":"function","name":"SPLIT_PROTOCOL_BPS","inputs":[],"outputs":[{"name":"","type":"uint256","internalType":"uint256"}],"stateMutability":"view"},{"type":"function","name":"WETH","inputs":[],"outputs":[{"name":"","type":"address","internalType":"contract IWETH"}],"stateMutability":"view"},{"type":"function","name":"authorizedDistributors","inputs":[{"name":"","type":"address","internalType":"address"}],"outputs":[{"name":"","type":"bool","internalType":"bool"}],"stateMutability":"view"},{"type":"function","name":"claimETH","inputs":[],"outputs":[],"stateMutability":"nonpayable"},{"type":"function","name":"distribute","inputs":[{"name":"agentTreasury","type":"address","internalType":"address"},{"name":"minRunOut","type":"uint256","internalType":"uint256"}],"outputs":[],"stateMutability":"payable"},{"type":"function","name":"getClaimable","inputs":[{"name":"recipient","type":"address","internalType":"address"}],"outputs":[{"name":"ethAmount","type":"uint256","internalType":"uint256"}],"stateMutability":"view"},{"type":"function","name":"getDistributionCount","inputs":[],"outputs":[{"name":"","type":"uint256","internalType":"uint256"}],"stateMutability":"view"},{"type":"function","name":"owner","inputs":[],"outputs":[{"name":"","type":"address","internalType":"address"}],"stateMutability":"view"},{"type":"function","name":"poolFee","inputs":[],"outputs":[{"name":"","type":"uint24","internalType":"uint24"}],"stateMutability":"view"},{"type":"function","name":"protocolFeeRecipient","inputs":[],"outputs":[{"name":"","type":"address","internalType":"address"}],"stateMutability":"view"},{"type":"function","name":"renounceOwnership","inputs":[],"outputs":[],"stateMutability":"nonpayable"},{"type":"function","name":"runToken","inputs":[],"outputs":[{"name":"","type":"address","internalType":"contract ERC20Burnable"}],"stateMutability":"view"},{"type":"function","name":"setAuthorizedDistributor","inputs":[{"name":"distributor","type":"address","internalType":"address"},{"name":"authorized","type":"bool","internalType":"bool"}],"outputs":[],"stateMutability":"nonpayable"},{"type":"function","name":"setPoolFee","inputs":[{"name":"newFee","type":"uint24","internalType":"uint24"}],"outputs":[],"stateMutability":"nonpayable"},{"type":"function","name":"setProtocolFeeRecipient","inputs":[{"name":"newRecipient","type":"address","internalType":"address"}],"outputs":[],"stateMutability":"nonpayable"},{"type":"function","name":"swapRouter","inputs":[],"outputs":[{"name":"","type":"address","internalType":"contract ISwapRouter"}],"stateMutability":"view"},{"type":"function","name":"totalRunBurned","inputs":[],"outputs":[{"name":"","type":"uint256","internalType":"uint256"}],"stateMutability":"view"},{"type":"function","name":"transferOwnership","inputs":[{"name":"newOwner","type":"address","internalType":"address"}],"outputs":[],"stateMutability":"nonpayable"},{"type":"event","name":"BuybackExecuted","inputs":[{"name":"distributionId","type":"uint256","indexed":true,"internalType":"uint256"},{"name":"ethSpent","type":"uint256","indexed":false,"internalType":"uint256"},{"name":"runBurned","type":"uint256","indexed":false,"internalType":"uint256"}],"anonymous":false},{"type":"event","name":"DistributorUpdated","inputs":[{"name":"distributor","type":"address","indexed":true,"internalType":"address"},{"name":"authorized","type":"bool","indexed":false,"internalType":"bool"}],"anonymous":false},{"type":"event","name":"ETHClaimed","inputs":[{"name":"recipient","type":"address","indexed":true,"internalType":"address"},{"name":"amount","type":"uint256","indexed":false,"internalType":"uint256"}],"anonymous":false},{"type":"event","name":"FeesDistributed","inputs":[{"name":"distributionId","type":"uint256","indexed":true,"internalType":"uint256"},{"name":"agentTreasury","type":"address","indexed":true,"internalType":"address"},{"name":"amountAgent","type":"uint256","indexed":false,"internalType":"uint256"},{"name":"amountBuyback","type":"uint256","indexed":false,"internalType":"uint256"},{"name":"amountProtocol","type":"uint256","indexed":false,"internalType":"uint256"}],"anonymous":false},{"type":"event","name":"OwnershipTransferred","inputs":[{"name":"previousOwner","type":"address","indexed":true,"internalType":"address"},{"name":"newOwner","type":"address","indexed":true,"internalType":"address"}],"anonymous":false},{"type":"event","name":"PoolFeeUpdated","inputs":[{"name":"oldFee","type":"uint24","indexed":false,"internalType":"uint24"},{"name":"newFee","type":"uint24","indexed":false,"internalType":"uint24"}],"anonymous":false},{"type":"event","name":"ProtocolFeeRecipientUpdated","inputs":[{"name":"oldRecipient","type":"address","indexed":false,"internalType":"address"},{"name":"newRecipient","type":"address","indexed":false,"internalType":"address"}],"anonymous":false},{"type":"event","name":"RunBurned","inputs":[{"name":"amount","type":"uint256","indexed":false,"internalType":"uint256"}],"anonymous":false},{"type":"error","name":"ETHTransferFailed","inputs":[]},{"type":"error","name":"InvalidPoolFee","inputs":[]},{"type":"error","name":"NoFeesToDistribute","inputs":[]},{"type":"error","name":"NothingToClaim","inputs":[]},{"type":"error","name":"OwnableInvalidOwner","inputs":[{"name":"owner","type":"address","internalType":"address"}]},{"type":"error","name":"OwnableUnauthorizedAccount","inputs":[{"name":"account","type":"address","internalType":"address"}]},{"type":"error","name":"ReentrancyGuardReentrantCall","inputs":[]},{"type":"error","name":"UnauthorizedDistributor","inputs":[]},{"type":"error","name":"ZeroAddress","inputs":[]}],"bytecode":{"object":"0x60c0346101b857601f610e6238819003918201601f191683019291906001600160401b038411838510176101bc5781608092849260409687528339810103126101b85761004b816101d0565b610057602083016101d0565b9160606100658583016101d0565b9101519262ffffff8416928385036101b85733156101a1575f8054336001600160a01b03198216811783558851946001600160a01b0394909385939192918416907f8be0079c531659141344cd1fd0a4f28419497f9722a3daafe3b4186f6b6457e09080a360017f9b779b17422d0df92223018b32b4d1fa46e071723d6817e2486d003becc55f005516928315610192575081169283156101815716928315610170571561015f5760805260a0526001549162ffffff60a01b9060a01b169160018060b81b031916171760015551610c7d90816101e5823960805181818161047601526109dd015260a0518181816108230152610a2a0152f35b8451631213a0ab60e01b8152600490fd5b855163d92e233d60e01b8152600490fd5b865163d92e233d60e01b8152600490fd5b63d92e233d60e01b8152600490fd5b8551631e4fbdf760e01b81525f6004820152602490fd5b5f80fd5b634e487b7160e01b5f52604160045260245ffd5b51906001600160a01b03821682036101b85756fe608060409080825260049081361015610022575b5050503615610020575f80fd5b005b5f3560e01c908163089fe6aa146108525750806321acf4fe1461080f57806342c91605146107f25780635f31e95c1461044157806364df049e146107ca57806367272999146106c757806367306b151461064a578063715018a6146105f357806373dd250c146105605780638d1696c9146105245780638da5cb5b146104fd578063a583024b146104c6578063ad5c4648146104a5578063c31c9c0714610462578063cae3a51114610446578063d64e34cd14610441578063e15753c114610423578063e1a4521814610407578063e521cb921461037f578063f2fde38b146102f35763fb932108146101155780610013565b816003193601126102ef57610128610890565b9161013161091e565b335f52600260205260ff815f20541615806102db575b6102ce5734156102c1576001600160a01b039283169283156102b357610fa09081340291348304036102a057612710809204916107d0803402903482040361028d57049461019e8661019985346108f0565b6108f0565b956101ab6024358561098b565b92825f526003602052855f206101c2898254610911565b9055600154165f526003602052845f206101dd828254610911565b9055855495600187019081881161027a5787987ff7e3493d2eb6a455012bf7667cb0e1563155e97974bcf902b23dc50b0a76bb1f98937fe7e97fa406a539ed771a134d7e475af81e7e9681b38f50534f4cf83b7af844d79360609355885191825287602083015288820152a382519182526020820152a260017f9b779b17422d0df92223018b32b4d1fa46e071723d6817e2486d003becc55f0055005b601190634e487b7160e01b5f525260245ffd5b601186634e487b7160e01b5f525260245ffd5b601184634e487b7160e01b5f525260245ffd5b505163d92e233d60e01b8152fd5b5163f164e13560e01b8152fd5b516301056e9d60e61b8152fd5b505f546001600160a01b0316331415610147565b5f80fd5b50346102ef5760203660031901126102ef5761030d610890565b90610316610960565b6001600160a01b039182169283156103695750505f54826bffffffffffffffffffffffff60a01b8216175f55167f8be0079c531659141344cd1fd0a4f28419497f9722a3daafe3b4186f6b6457e05f80a3005b905f6024925191631e4fbdf760e01b8352820152fd5b5090346102ef5760203660031901126102ef5761039a610890565b6103a2610960565b6001600160a01b0390811680156103f857600180546001600160a01b03198116831790915583519216825260208201527fd3890fc76afcfc31cba1dcf2c27b50e2541e4d75039c981855b5b5e03682aea09250a1005b50505163d92e233d60e01b8152fd5b82346102ef575f3660031901126102ef57602090516127108152f35b82346102ef575f3660031901126102ef576020906005549051908152f35b610874565b82346102ef575f3660031901126102ef57602090516107d08152f35b82346102ef575f3660031901126102ef57517f00000000000000000000000000000000000000000000000000000000000000006001600160a01b03168152602090f35b82346102ef575f3660031901126102ef57516006602160991b018152602090f35b82346102ef5760203660031901126102ef576020906001600160a01b036104eb610890565b165f5260038252805f20549051908152f35b82346102ef575f3660031901126102ef575f5490516001600160a01b039091168152602090f35b82346102ef5760203660031901126102ef576020906001600160a01b03610549610890565b165f526002825260ff815f20541690519015158152f35b5090346102ef5760203660031901126102ef57813562ffffff808216908183036102ef5761058c610960565b81156105e3576001805462ffffff60a01b19811660a095861b62ffffff60a01b16179091558451931c16825260208201527f711dfd3b24c5ee120b02d5eaa2bab0860d6e29db61bcb22f9fcd527d1f239fb09250a1005b50505051631213a0ab60e01b8152fd5b346102ef575f3660031901126102ef5761060b610960565b5f80546001600160a01b0319811682556001600160a01b03167f8be0079c531659141344cd1fd0a4f28419497f9722a3daafe3b4186f6b6457e08280a3005b82346102ef57806003193601126102ef57610663610890565b602435908115158092036102ef577f19e1fee2e38695e60ad3ef8c81759c22d6d7ee56f9b8805363820a50da468a189160209161069e610960565b6001600160a01b03165f81815260028452859020805460ff191660ff84161790559351908152a2005b5090346102ef575f3660031901126102ef576106e161091e565b335f526003602052805f20549182156107bc57335f5260036020525f828120555f80808086335af13d156107b7573d67ffffffffffffffff81116107a457835190610736601f8201601f1916602001836108ce565b81525f60203d92013e5b156107965750519081527f33f3a07d17ea3581c3647a566de28834fda4b148c01e213b5f980b4f54cafb5c60203392a260017f9b779b17422d0df92223018b32b4d1fa46e071723d6817e2486d003becc55f0055005b905163b12d13eb60e01b8152fd5b604183634e487b7160e01b5f525260245ffd5b610740565b90516312d37ee560e31b8152fd5b82346102ef575f3660031901126102ef5760015490516001600160a01b039091168152602090f35b5090346102ef575f3660031901126102ef57602091549051908152f35b82346102ef575f3660031901126102ef57517f00000000000000000000000000000000000000000000000000000000000000006001600160a01b03168152602090f35b346102ef575f3660031901126102ef5760209062ffffff60015460a01c168152f35b346102ef575f3660031901126102ef576020604051610fa08152f35b600435906001600160a01b03821682036102ef57565b67ffffffffffffffff81116108ba57604052565b634e487b7160e01b5f52604160045260245ffd5b90601f8019910116810190811067ffffffffffffffff8211176108ba57604052565b919082039182116108fd57565b634e487b7160e01b5f52601160045260245ffd5b919082018092116108fd57565b7f9b779b17422d0df92223018b32b4d1fa46e071723d6817e2486d003becc55f00600281541461094e5760029055565b604051633ee5aeb560e01b8152600490fd5b5f546001600160a01b0316330361097357565b60405163118cdaa760e01b8152336004820152602490fd5b90915f928215610c3f576006602160991b01803b156102ef5760408051630d0e30db60e41b81525f8160048189875af18015610c3557610c22575b50805163095ea7b360e01b81526001600160a01b037f00000000000000000000000000000000000000000000000000000000000000008116600483018190526024830188905260209591949286816044818d885af18015610c1857610bdd575b50847f0000000000000000000000000000000000000000000000000000000000000000169760015485519361010085019285841067ffffffffffffffff8511176108ba578b898e948c9982978c5289528989019283528a89019060a01c62ffffff16815260608901903082528260808b019442865260a08c0196875260c08c0197885260e08c019889528d519e8f9c8d63414bf38960e01b9052511660048d0152511660248b01525162ffffff1660448a0152511660648801525160848701525160a48601525160c4850152511660e483015281895a9261010493f1918215610bd3578692610ba4575b50858295803b15610ba05781906024845180948193630852cd8d60e31b83528860048401525af18015610b9657610b7e575b507f51d3716335e469b372648b00078c669594abb292cdb794c8cd5de7749953a4e993949550610b7482600554610911565b60055551908152a1565b610b8887916108a6565b610b925785610b42565b8580fd5b82513d89823e3d90fd5b5080fd5b9091508281813d8311610bcc575b610bbc81836108ce565b81010312610b925751905f610b10565b503d610bb2565b81513d88823e3d90fd5b8681813d8311610c11575b610bf281836108ce565b81010312610c0d575180151503610c09575f610a26565b8880fd5b8980fd5b503d610be8565b85513d8c823e3d90fd5b610c2d9196506108a6565b5f945f6109c6565b82513d5f823e3d90fd5b509150505f9056fea264697066735822122038b89a2aca8519952c8430ed5c59240437456f829b328eed0c339232646272c764736f6c63430008180033","linkReferences":{}},"methodIdentifiers":{"BPS_DENOMINATOR()":"e1a45218","SPLIT_AGENT_BPS()":"d64e34cd","SPLIT_BUYBACK_BPS()":"5f31e95c","SPLIT_PROTOCOL_BPS()":"cae3a511","WETH()":"ad5c4648","authorizedDistributors(address)":"8d1696c9","claimETH()":"67272999","distribute(address,uint256)":"fb932108","getClaimable(address)":"a583024b","getDistributionCount()":"42c91605","owner()":"8da5cb5b","poolFee()":"089fe6aa","protocolFeeRecipient()":"64df049e","renounceOwnership()":"715018a6","runToken()":"21acf4fe","setAuthorizedDistributor(address,bool)":"67306b15","setPoolFee(uint24)":"73dd250c","setProtocolFeeRecipient(address)":"e521cb92","swapRouter()":"c31c9c07","totalRunBurned()":"e15753c1","transferOwnership(address)":"f2fde38b"},"id":18}