{"abi":[{"type":"constructor","inputs":[{"name":"_usdc","type":"address","internalType":"address"},{"name":"_scoreSubmitter","type":"address","internalType":"address"}],"stateMutability":"nonpayable"},{"type":"receive","stateMutability":"payable"},{"type":"function","name":"BPS_DENOMINATOR","inputs":[],"outputs":[{"name":"","type":"uint256","internalType":"uint256"}],"stateMutability":"view"},{"type":"function","name":"CREATOR_SHARE_BPS","inputs":[],"outputs":[{"name":"","type":"uint256","internalType":"uint256"}],"stateMutability":"view"},{"type":"function","name":"claimRevenue","inputs":[{"name":"epoch","type":"uint256","internalType":"uint256"}],"outputs":[],"stateMutability":"nonpayable"},{"type":"function","name":"deposit","inputs":[],"outputs":[],"stateMutability":"payable"},{"type":"function","name":"depositUSDC","inputs":[{"name":"amount","type":"uint256","internalType":"uint256"}],"outputs":[],"stateMutability":"nonpayable"},{"type":"function","name":"epochDuration","inputs":[],"outputs":[{"name":"","type":"uint256","internalType":"uint256"}],"stateMutability":"view"},{"type":"function","name":"genesisTimestamp","inputs":[],"outputs":[{"name":"","type":"uint256","internalType":"uint256"}],"stateMutability":"view"},{"type":"function","name":"getClaimable","inputs":[{"name":"creator","type":"address","internalType":"address"},{"name":"epoch","type":"uint256","internalType":"uint256"}],"outputs":[{"name":"","type":"uint256","internalType":"uint256"}],"stateMutability":"view"},{"type":"function","name":"getCurrentEpoch","inputs":[],"outputs":[{"name":"","type":"uint256","internalType":"uint256"}],"stateMutability":"view"},{"type":"function","name":"getEpochRevenue","inputs":[{"name":"epoch","type":"uint256","internalType":"uint256"}],"outputs":[{"name":"total","type":"uint256","internalType":"uint256"},{"name":"creatorShare","type":"uint256","internalType":"uint256"},{"name":"finalized","type":"bool","internalType":"bool"}],"stateMutability":"view"},{"type":"function","name":"owner","inputs":[],"outputs":[{"name":"","type":"address","internalType":"address"}],"stateMutability":"view"},{"type":"function","name":"renounceOwnership","inputs":[],"outputs":[],"stateMutability":"nonpayable"},{"type":"function","name":"scoreSubmitter","inputs":[],"outputs":[{"name":"","type":"address","internalType":"address"}],"stateMutability":"view"},{"type":"function","name":"setEpochDuration","inputs":[{"name":"newDuration","type":"uint256","internalType":"uint256"}],"outputs":[],"stateMutability":"nonpayable"},{"type":"function","name":"setScoreSubmitter","inputs":[{"name":"newSubmitter","type":"address","internalType":"address"}],"outputs":[],"stateMutability":"nonpayable"},{"type":"function","name":"submitEpochScores","inputs":[{"name":"epoch","type":"uint256","internalType":"uint256"},{"name":"creators","type":"address[]","internalType":"address[]"},{"name":"scores","type":"uint256[]","internalType":"uint256[]"}],"outputs":[],"stateMutability":"nonpayable"},{"type":"function","name":"transferOwnership","inputs":[{"name":"newOwner","type":"address","internalType":"address"}],"outputs":[],"stateMutability":"nonpayable"},{"type":"function","name":"usdc","inputs":[],"outputs":[{"name":"","type":"address","internalType":"contract IERC20"}],"stateMutability":"view"},{"type":"event","name":"EpochDurationUpdated","inputs":[{"name":"oldDuration","type":"uint256","indexed":false,"internalType":"uint256"},{"name":"newDuration","type":"uint256","indexed":false,"internalType":"uint256"}],"anonymous":false},{"type":"event","name":"EpochFinalized","inputs":[{"name":"epoch","type":"uint256","indexed":true,"internalType":"uint256"},{"name":"totalRevenue","type":"uint256","indexed":false,"internalType":"uint256"},{"name":"creatorShare","type":"uint256","indexed":false,"internalType":"uint256"}],"anonymous":false},{"type":"event","name":"OwnershipTransferred","inputs":[{"name":"previousOwner","type":"address","indexed":true,"internalType":"address"},{"name":"newOwner","type":"address","indexed":true,"internalType":"address"}],"anonymous":false},{"type":"event","name":"RevenueClaimed","inputs":[{"name":"creator","type":"address","indexed":true,"internalType":"address"},{"name":"epoch","type":"uint256","indexed":true,"internalType":"uint256"},{"name":"amount","type":"uint256","indexed":false,"internalType":"uint256"}],"anonymous":false},{"type":"event","name":"RevenueDeposited","inputs":[{"name":"depositor","type":"address","indexed":true,"internalType":"address"},{"name":"amount","type":"uint256","indexed":false,"internalType":"uint256"},{"name":"isUSDC","type":"bool","indexed":false,"internalType":"bool"}],"anonymous":false},{"type":"error","name":"AlreadyClaimed","inputs":[]},{"type":"error","name":"ArrayLengthMismatch","inputs":[]},{"type":"error","name":"EpochNotFinalized","inputs":[]},{"type":"error","name":"InvalidEpoch","inputs":[]},{"type":"error","name":"NothingToClaim","inputs":[]},{"type":"error","name":"OwnableInvalidOwner","inputs":[{"name":"owner","type":"address","internalType":"address"}]},{"type":"error","name":"OwnableUnauthorizedAccount","inputs":[{"name":"account","type":"address","internalType":"address"}]},{"type":"error","name":"ReentrancyGuardReentrantCall","inputs":[]},{"type":"error","name":"SafeERC20FailedOperation","inputs":[{"name":"token","type":"address","internalType":"address"}]},{"type":"error","name":"TransferFailed","inputs":[]}],"bytecode":{"object":"0x60a03461011957601f610e2a38819003918201601f19168301916001600160401b0383118484101761011d57808492604094855283398101031261011957610052602061004b83610131565b9201610131565b903315610101575f549160018060a01b03908160018060a01b03199333858716175f5560405195823391167f8be0079c531659141344cd1fd0a4f28419497f9722a3daafe3b4186f6b6457e05f80a360017f9b779b17422d0df92223018b32b4d1fa46e071723d6817e2486d003becc55f0055166080521690600354161760035562093a8060015542600255610ce490816101468239608051818181610117015281816107d501526109490152f35b604051631e4fbdf760e01b81525f6004820152602490fd5b5f80fd5b634e487b7160e01b5f52604160045260245ffd5b51906001600160a01b03821682036101195756fe60406080815260049081361015610027575b5050361561001d575f80fd5b610025610be0565b005b5f3560e01c80631cb536ed1461085657806330024dfe146108045780633e413bee146107c1578063479dfd7b146107a55780634ff0876a146107875780636f5244b11461075f578063715018a6146107085780637d8c685b146106e05780638da5cb5b146106b95780638e4458af14610676578063a1a83d8e146105f3578063b97dd9e2146105d0578063c023837814610305578063cacf66ab146102e7578063d0e30db0146102b9578063e1a452181461029d578063f2fde38b146102105763f688bcfb03610011573461020c57602036600319011261020c5781359061010d610c34565b610115610b90565b7f0000000000000000000000000000000000000000000000000000000000000000938251906323b872dd60e01b5f52338152306024528460445260205f606481808a5af160015f51148116156101ed575b8285525f606052156101cf57847f4badc83c9d3b24a7310abf4b9cc26f96748ad5e42821e482b4d3443e25f16def85855f526005602052805f206101ab848254610add565b90558051928352600160208401523392a260015f80516020610c8f83398151915255005b635274afe760e01b82526001600160a01b0386169082015260249150fd5b600181151661020357863b15153d151616610166565b823d5f823e3d90fd5b5f80fd5b50903461020c57602036600319011261020c5761022b610a96565b90610234610c63565b6001600160a01b039182169283156102875750505f54826bffffffffffffffffffffffff60a01b8216175f55167f8be0079c531659141344cd1fd0a4f28419497f9722a3daafe3b4186f6b6457e05f80a3005b905f6024925191631e4fbdf760e01b8352820152fd5b503461020c575f36600319011261020c57602090516127108152f35b5f36600319011261020c576102cc610c34565b6102d4610be0565b60015f80516020610c8f83398151915255005b503461020c575f36600319011261020c576020906002549051908152f35b503461020c57606036600319011261020c5781359067ffffffffffffffff60243581811161020c5761033a9036908601610aac565b909160443590811161020c576103539036908701610aac565b9561035c610c34565b6003546001600160a01b0394908516331415806105c3575b6105b4578784036105a557865f526020936006855260ff875f205416610595575f915f5b8a808210610575575050821561056557885f52838652875f20549661138897888102908082048a149015171561055257612710809104988b5f52600589528a5f205481810291818304149015171561053f5704955f5b848110610477578b7fb463d19ecf455be65365092cf8e1db6934a0334cf8cd532ddf9964d01f36b5b28c8c8c61045a8d8d8d885f5260068552865f20600160ff19825416179055600a8552865f20558352610454855f205460058552865f205490610add565b93610add565b908351928352820152a260015f80516020610c8f83398151915255005b8085878f8f8f958f91928f6001988a958d928d61049587878b610ba8565b356104ac575b5050505050505050505050016103ee565b6104e96104e4886105079d6104de8e6104d96104d99f9e6105009f868f6104d292610ba8565b3590610b5f565b610b72565b98610ba8565b610bcc565b165f5260078152825f20915f52525f205588610ba8565b358c610b5f565b846105166104e4848a8a610ba8565b165f5260088b528d8d5f20905f528b528c5f205585878f8f8f8f91928f87928a958d928d61049b565b601187634e487b7160e01b5f525260245ffd5b601186634e487b7160e01b5f525260245ffd5b875163d5b25b6360e01b81528490fd5b819461058760019361058e938a610ba8565b3590610add565b9301610398565b865163d5b25b6360e01b81528390fd5b50845163512509d360e11b8152fd5b50845163d5b25b6360e01b8152fd5b50845f5416331415610374565b503461020c575f36600319011261020c576020906105ec610b90565b9051908152f35b503461020c57602036600319011261020c57813590815f5282602052610625815f20546005602052825f205490610add565b916113889081840291848304148415171561066357606094505f52600660205261271060ff835f205416918351948552046020840152151590820152f35b601185634e487b7160e01b5f525260245ffd5b3461020c57602036600319011261020c5761068f610a96565b610697610c63565b600380546001600160a01b0319166001600160a01b0392909216919091179055005b503461020c575f36600319011261020c575f5490516001600160a01b039091168152602090f35b503461020c575f36600319011261020c5760035490516001600160a01b039091168152602090f35b3461020c575f36600319011261020c57610720610c63565b5f80546001600160a01b0319811682556001600160a01b03167f8be0079c531659141344cd1fd0a4f28419497f9722a3daafe3b4186f6b6457e08280a3005b503461020c578060031936011261020c576020906105ec61077e610a96565b60243590610afe565b503461020c575f36600319011261020c576020906001549051908152f35b503461020c575f36600319011261020c57602090516113888152f35b503461020c575f36600319011261020c57517f00000000000000000000000000000000000000000000000000000000000000006001600160a01b03168152602090f35b503461020c57602036600319011261020c577fda8ff87475657c76bff7b4e017c535d5fbf29958aedc8095a45c56d9fab528f69135610841610c63565b600154908060015582519182526020820152a1005b503461020c5760208060031936011261020c57823592610874610c34565b835f526006825260ff835f20541615610a8857335f5260098252825f20845f52825260ff835f205416610a7a57335f5260078252825f20845f528252825f2054335f5260088352835f20855f528352835f2054918115808091610a72575b610a6357335f5260098552855f20875f528552855f20600160ff19825416179055156109de575b82610947575b507f93f4874ba298e34c281f3250aae66c9bad9de65e7f2dd0dc6f8549c1234df15b929161092c91610add565b92519283523392a360015f80516020610c8f83398151915255005b7f00000000000000000000000000000000000000000000000000000000000000009085519163a9059cbb60e01b5f5233825284602452855f60448180855af160015f51148116156109bf575b838852156109a25750506108ff565b635274afe760e01b83526001600160a01b03169082015260249150fd5b60018115166109d557813b15153d151616610993565b833d5f823e3d90fd5b5f80808085335af13d15610a5e5767ffffffffffffffff3d818111610a4b57875191601f8201601f19908116603f0116830190811183821017610a3857885281525f863d92013e5b6108f95784516312171d8360e31b8152fd5b604185634e487b7160e01b5f525260245ffd5b604184634e487b7160e01b5f525260245ffd5b610a26565b5084516312d37ee560e31b8152fd5b5083156108d2565b8251630c8d9eab60e31b8152fd5b8251638cf7570760e01b8152fd5b600435906001600160a01b038216820361020c57565b9181601f8401121561020c5782359167ffffffffffffffff831161020c576020808501948460051b01011161020c57565b91908201809211610aea57565b634e487b7160e01b5f52601160045260245ffd5b60018060a01b0316805f5260209160098352604090815f20815f52845260ff825f205416610b5757610b5493835f5260078152825f20825f528152825f2054935f5260088152825f20915f52525f205490610add565b90565b505050505f90565b81810292918115918404141715610aea57565b8115610b7c570490565b634e487b7160e01b5f52601260045260245ffd5b6002544203428111610aea57600154610b5491610b72565b9190811015610bb85760051b0190565b634e487b7160e01b5f52603260045260245ffd5b356001600160a01b038116810361020c5790565b610be8610b90565b5f52600460205260405f20610bfe348254610add565b90556040513481525f60208201527f4badc83c9d3b24a7310abf4b9cc26f96748ad5e42821e482b4d3443e25f16def60403392a2565b5f80516020610c8f8339815191526002815414610c515760029055565b604051633ee5aeb560e01b8152600490fd5b5f546001600160a01b03163303610c7657565b60405163118cdaa760e01b8152336004820152602490fdfe9b779b17422d0df92223018b32b4d1fa46e071723d6817e2486d003becc55f00a2646970667358221220a3d2ddce055455eac5f86bb4b0d5aa0f04b9260cd84f7e546fc9e12a1f0d33ef64736f6c63430008180033","linkReferences":{}},"methodIdentifiers":{"BPS_DENOMINATOR()":"e1a45218","CREATOR_SHARE_BPS()":"479dfd7b","claimRevenue(uint256)":"1cb536ed","deposit()":"d0e30db0","depositUSDC(uint256)":"f688bcfb","epochDuration()":"4ff0876a","genesisTimestamp()":"cacf66ab","getClaimable(address,uint256)":"6f5244b1","getCurrentEpoch()":"b97dd9e2","getEpochRevenue(uint256)":"a1a83d8e","owner()":"8da5cb5b","renounceOwnership()":"715018a6","scoreSubmitter()":"7d8c685b","setEpochDuration(uint256)":"30024dfe","setScoreSubmitter(address)":"8e4458af","submitEpochScores(uint256,address[],uint256[])":"c0238378","transferOwnership(address)":"f2fde38b","usdc()":"3e413bee"},"id":55}