{"abi":[{"type":"constructor","inputs":[{"name":"initialAdmin","type":"address","internalType":"address"}],"stateMutability":"nonpayable"},{"type":"function","name":"DEFAULT_ADMIN_ROLE","inputs":[],"outputs":[{"name":"","type":"bytes32","internalType":"bytes32"}],"stateMutability":"view"},{"type":"function","name":"MAX_SUPPLY","inputs":[],"outputs":[{"name":"","type":"uint256","internalType":"uint256"}],"stateMutability":"view"},{"type":"function","name":"MINTER_ROLE","inputs":[],"outputs":[{"name":"","type":"bytes32","internalType":"bytes32"}],"stateMutability":"view"},{"type":"function","name":"allowance","inputs":[{"name":"owner","type":"address","internalType":"address"},{"name":"spender","type":"address","internalType":"address"}],"outputs":[{"name":"","type":"uint256","internalType":"uint256"}],"stateMutability":"view"},{"type":"function","name":"approve","inputs":[{"name":"spender","type":"address","internalType":"address"},{"name":"value","type":"uint256","internalType":"uint256"}],"outputs":[{"name":"","type":"bool","internalType":"bool"}],"stateMutability":"nonpayable"},{"type":"function","name":"balanceOf","inputs":[{"name":"account","type":"address","internalType":"address"}],"outputs":[{"name":"","type":"uint256","internalType":"uint256"}],"stateMutability":"view"},{"type":"function","name":"burn","inputs":[{"name":"value","type":"uint256","internalType":"uint256"}],"outputs":[],"stateMutability":"nonpayable"},{"type":"function","name":"burnFrom","inputs":[{"name":"account","type":"address","internalType":"address"},{"name":"value","type":"uint256","internalType":"uint256"}],"outputs":[],"stateMutability":"nonpayable"},{"type":"function","name":"decimals","inputs":[],"outputs":[{"name":"","type":"uint8","internalType":"uint8"}],"stateMutability":"view"},{"type":"function","name":"getRoleAdmin","inputs":[{"name":"role","type":"bytes32","internalType":"bytes32"}],"outputs":[{"name":"","type":"bytes32","internalType":"bytes32"}],"stateMutability":"view"},{"type":"function","name":"grantRole","inputs":[{"name":"role","type":"bytes32","internalType":"bytes32"},{"name":"account","type":"address","internalType":"address"}],"outputs":[],"stateMutability":"nonpayable"},{"type":"function","name":"hasRole","inputs":[{"name":"role","type":"bytes32","internalType":"bytes32"},{"name":"account","type":"address","internalType":"address"}],"outputs":[{"name":"","type":"bool","internalType":"bool"}],"stateMutability":"view"},{"type":"function","name":"mint","inputs":[{"name":"to","type":"address","internalType":"address"},{"name":"amount","type":"uint256","internalType":"uint256"}],"outputs":[],"stateMutability":"nonpayable"},{"type":"function","name":"name","inputs":[],"outputs":[{"name":"","type":"string","internalType":"string"}],"stateMutability":"view"},{"type":"function","name":"renounceRole","inputs":[{"name":"role","type":"bytes32","internalType":"bytes32"},{"name":"callerConfirmation","type":"address","internalType":"address"}],"outputs":[],"stateMutability":"nonpayable"},{"type":"function","name":"revokeRole","inputs":[{"name":"role","type":"bytes32","internalType":"bytes32"},{"name":"account","type":"address","internalType":"address"}],"outputs":[],"stateMutability":"nonpayable"},{"type":"function","name":"supportsInterface","inputs":[{"name":"interfaceId","type":"bytes4","internalType":"bytes4"}],"outputs":[{"name":"","type":"bool","internalType":"bool"}],"stateMutability":"view"},{"type":"function","name":"symbol","inputs":[],"outputs":[{"name":"","type":"string","internalType":"string"}],"stateMutability":"view"},{"type":"function","name":"totalSupply","inputs":[],"outputs":[{"name":"","type":"uint256","internalType":"uint256"}],"stateMutability":"view"},{"type":"function","name":"transfer","inputs":[{"name":"to","type":"address","internalType":"address"},{"name":"value","type":"uint256","internalType":"uint256"}],"outputs":[{"name":"","type":"bool","internalType":"bool"}],"stateMutability":"nonpayable"},{"type":"function","name":"transferFrom","inputs":[{"name":"from","type":"address","internalType":"address"},{"name":"to","type":"address","internalType":"address"},{"name":"value","type":"uint256","internalType":"uint256"}],"outputs":[{"name":"","type":"bool","internalType":"bool"}],"stateMutability":"nonpayable"},{"type":"event","name":"Approval","inputs":[{"name":"owner","type":"address","indexed":true,"internalType":"address"},{"name":"spender","type":"address","indexed":true,"internalType":"address"},{"name":"value","type":"uint256","indexed":false,"internalType":"uint256"}],"anonymous":false},{"type":"event","name":"RoleAdminChanged","inputs":[{"name":"role","type":"bytes32","indexed":true,"internalType":"bytes32"},{"name":"previousAdminRole","type":"bytes32","indexed":true,"internalType":"bytes32"},{"name":"newAdminRole","type":"bytes32","indexed":true,"internalType":"bytes32"}],"anonymous":false},{"type":"event","name":"RoleGranted","inputs":[{"name":"role","type":"bytes32","indexed":true,"internalType":"bytes32"},{"name":"account","type":"address","indexed":true,"internalType":"address"},{"name":"sender","type":"address","indexed":true,"internalType":"address"}],"anonymous":false},{"type":"event","name":"RoleRevoked","inputs":[{"name":"role","type":"bytes32","indexed":true,"internalType":"bytes32"},{"name":"account","type":"address","indexed":true,"internalType":"address"},{"name":"sender","type":"address","indexed":true,"internalType":"address"}],"anonymous":false},{"type":"event","name":"Transfer","inputs":[{"name":"from","type":"address","indexed":true,"internalType":"address"},{"name":"to","type":"address","indexed":true,"internalType":"address"},{"name":"value","type":"uint256","indexed":false,"internalType":"uint256"}],"anonymous":false},{"type":"error","name":"AccessControlBadConfirmation","inputs":[]},{"type":"error","name":"AccessControlUnauthorizedAccount","inputs":[{"name":"account","type":"address","internalType":"address"},{"name":"neededRole","type":"bytes32","internalType":"bytes32"}]},{"type":"error","name":"ERC20InsufficientAllowance","inputs":[{"name":"spender","type":"address","internalType":"address"},{"name":"allowance","type":"uint256","internalType":"uint256"},{"name":"needed","type":"uint256","internalType":"uint256"}]},{"type":"error","name":"ERC20InsufficientBalance","inputs":[{"name":"sender","type":"address","internalType":"address"},{"name":"balance","type":"uint256","internalType":"uint256"},{"name":"needed","type":"uint256","internalType":"uint256"}]},{"type":"error","name":"ERC20InvalidApprover","inputs":[{"name":"approver","type":"address","internalType":"address"}]},{"type":"error","name":"ERC20InvalidReceiver","inputs":[{"name":"receiver","type":"address","internalType":"address"}]},{"type":"error","name":"ERC20InvalidSender","inputs":[{"name":"sender","type":"address","internalType":"address"}]},{"type":"error","name":"ERC20InvalidSpender","inputs":[{"name":"spender","type":"address","internalType":"address"}]},{"type":"error","name":"MaxSupplyExceeded","inputs":[]},{"type":"error","name":"ZeroAddress","inputs":[]}],"bytecode":{"object":"0x60806040523462000355576200109c80380390816200001e8162000379565b92839283396020928391810103126200035557516001600160a01b03811680820362000355576200004e62000359565b601381527f43454f532e52554e20476f7665726e616e636500000000000000000000000000848201526200008162000359565b600380825262292aa760e91b8683015282516001600160401b03928382116200025e578254916001958684811c941680156200034a575b8a85101462000336578190601f94858111620002e3575b508a908583116001146200027e575f9262000272575b50505f1982861b1c191690861b1783555b80519384116200025e5760049788548681811c9116801562000253575b828210146200024057838111620001f8575b50809285116001146200018e57509383949184925f9562000182575b50501b925f19911b1c19161783555b15620001725762000161906200039f565b50604051610c5a9081620004228239f35b5060405163d92e233d60e01b8152fd5b015193505f8062000141565b92919084601f1981168a5f52855f20955f905b89838310620001dd5750505010620001c3575b50505050811b01835562000150565b01519060f8845f19921b161c191690555f808080620001b4565b858701518955909701969485019488935090810190620001a1565b895f52815f208480880160051c82019284891062000236575b0160051c019087905b8281106200022a57505062000125565b5f81550187906200021a565b9250819262000211565b60228a634e487b7160e01b5f525260245ffd5b90607f169062000113565b634e487b7160e01b5f52604160045260245ffd5b015190505f80620000e5565b5f8781528c81208a9550929190601f198516908e5b828210620002cb5750508411620002b3575b505050811b018355620000f6565b01515f1983881b60f8161c191690555f8080620002a5565b8385015186558c979095019493840193018e62000293565b909150855f528a5f208580850160051c8201928d86106200032c575b918a91869594930160051c01915b8281106200031d575050620000cf565b5f81558594508a91016200030d565b92508192620002ff565b634e487b7160e01b5f52602260045260245ffd5b93607f1693620000b8565b5f80fd5b60408051919082016001600160401b038111838210176200025e57604052565b6040519190601f01601f191682016001600160401b038111838210176200025e57604052565b6001600160a01b03165f8181525f805160206200107c833981519152602052604090205460ff166200041c575f8181525f805160206200107c83398151915260205260408120805460ff191660011790553391907f2f8788117e7eff1d82e926ec794901d17c78024a50270940304540a733656f0d8180a4600190565b505f9056fe6080604090808252600480361015610015575f80fd5b5f3560e01c91826301ffc9a7146107c65750816306fdde03146106eb578163095ea7b31461064357816318160ddd1461062557816323b872dd146105e9578163248a9ca3146105bf5781632f2ff15d14610597578163313ce5671461057c57816332cb6b0c1461055657816336568abe1461051257816340c10f19146103f757816342966c68146103db57816370a08231146103a557816379cc67901461037657816391d148541461033257816395d89b4114610213578163a217fddf146101f9578163a9059cbb146101c9578163d53913931461018f578163d547741f14610153575063dd62ed3e14610107575f80fd5b3461014f578060031936011261014f5760209061012261085f565b61012a610875565b9060018060a01b038091165f5260018452825f2091165f528252805f20549051908152f35b5f80fd5b823461014f578060031936011261014f5761018d91356101886001610176610875565b93835f5260056020525f200154610a53565b610b11565b005b823461014f575f36600319011261014f57602090517f9f2df0fed2c77648de5860a4cc508cd0818c85b8b8a1ab4ceeef8d981c8956a68152f35b823461014f578060031936011261014f576020906101f26101e861085f565b6024359033610979565b5160018152f35b823461014f575f36600319011261014f57602090515f8152f35b823461014f575f36600319011261014f578051905f835460018160011c9060018316928315610328575b6020938484108114610315578388529081156102f957506001146102a5575b505050829003601f01601f191682019267ffffffffffffffff841183851017610292575082918261028e925282610818565b0390f35b604190634e487b7160e01b5f525260245ffd5b5f878152929350837f8a35acfbc15ff81a39ae7d344fd709f28e8600b4aa8c65c6b64bfe7fe36bd19b5b8385106102e5575050505083010184808061025c565b8054888601830152930192849082016102cf565b60ff1916878501525050151560051b840101905084808061025c565b602289634e487b7160e01b5f525260245ffd5b91607f169161023d565b823461014f578060031936011261014f5760209161034e610875565b90355f5260058352815f209060018060a01b03165f52825260ff815f20541690519015158152f35b823461014f5736600319011261014f5761018d61039161085f565b602435906103a08233836108ac565b610b85565b823461014f57602036600319011261014f576020906001600160a01b036103ca61085f565b165f525f8252805f20549051908152f35b3461014f57602036600319011261014f5761018d903533610b85565b823461014f578060031936011261014f5761041061085f565b90602435917f9f2df0fed2c77648de5860a4cc508cd0818c85b8b8a1ab4ceeef8d981c8956a6805f526005602052825f20335f5260205260ff835f205416156104f45750600254906b033b2e3c9fd0803ce800000061046f858461088b565b116104e4576001600160a01b03169384156104ce5750827fddf252ad1be2c89b69c2b068fc378daa952ba7f163c4a11628f55a4df523b3ef926104b55f9560209461088b565b60025585855284835280852082815401905551908152a3005b6024905f84519163ec442f0560e01b8352820152fd5b8251638a164f6360e01b81528590fd5b825163e2517d3f60e01b815233818701526024810191909152604490fd5b823461014f578060031936011261014f5761052b610875565b90336001600160a01b03831603610547575061018d9135610b11565b5163334bd91960e11b81529050fd5b823461014f575f36600319011261014f57602090516b033b2e3c9fd0803ce80000008152f35b823461014f575f36600319011261014f576020905160128152f35b823461014f578060031936011261014f5761018d91356105ba6001610176610875565b610a93565b823461014f57602036600319011261014f57602091355f52600582526001815f2001549051908152f35b823461014f57606036600319011261014f576020906101f261060961085f565b610611610875565b604435916106208333836108ac565b610979565b823461014f575f36600319011261014f576020906002549051908152f35b823461014f578060031936011261014f5761065c61085f565b6024359033156106d5576001600160a01b03169081156106bf5760209350335f5260018452825f20825f52845280835f205582519081527f8c5be1e5ebec7d5bd14f71427d1e84f3dd0314c0f7b2291e5b200ac8c7c3b925843392a35160018152f35b8251634a1406b160e11b81525f81860152602490fd5b825163e602df0560e01b81525f81860152602490fd5b823461014f575f36600319011261014f578051905f60035460018160011c90600183169283156107bc575b6020938484108114610315578388529081156102f9575060011461076657505050829003601f01601f191682019267ffffffffffffffff841183851017610292575082918261028e925282610818565b60035f908152929350837fc2575a0e9e593c00f959f8c92f12db2869c3395a3b0502d05e2516446f71f85b5b8385106107a8575050505083010184808061025c565b805488860183015293019284908201610792565b91607f1691610716565b903461014f57602036600319011261014f57359063ffffffff60e01b821680920361014f57602091637965db0b60e01b8114908115610807575b5015158152f35b6301ffc9a760e01b14905083610800565b602080825282518183018190529093925f5b82811061084b57505060409293505f838284010152601f8019910116010190565b81810186015184820160400152850161082a565b600435906001600160a01b038216820361014f57565b602435906001600160a01b038216820361014f57565b9190820180921161089857565b634e487b7160e01b5f52601160045260245ffd5b919060018060a01b0380931692835f526001602052604093845f2091831691825f52602052845f2054925f1984106108e7575b505050505050565b8484106109495750801561093257811561091b575f526001602052835f20905f5260205203905f20555f80808080806108df565b8451634a1406b160e11b81525f6004820152602490fd5b845163e602df0560e01b81525f6004820152602490fd5b8551637dc7a0d960e11b81526001600160a01b039190911660048201526024810184905260448101859052606490fd5b916001600160a01b03808416928315610a3b5716928315610a2357825f525f60205260405f2054908282106109f15750817fddf252ad1be2c89b69c2b068fc378daa952ba7f163c4a11628f55a4df523b3ef92602092855f525f84520360405f2055845f5260405f20818154019055604051908152a3565b60405163391434e360e21b81526001600160a01b03919091166004820152602481019190915260448101829052606490fd5b60405163ec442f0560e01b81525f6004820152602490fd5b604051634b637e8f60e11b81525f6004820152602490fd5b805f52600560205260405f20335f5260205260ff60405f20541615610a755750565b6044906040519063e2517d3f60e01b82523360048301526024820152fd5b90815f52600560205260405f209060018060a01b031690815f5260205260ff60405f205416155f14610b0b57815f52600560205260405f20815f5260205260405f20600160ff1982541617905533917f2f8788117e7eff1d82e926ec794901d17c78024a50270940304540a733656f0d5f80a4600190565b50505f90565b90815f52600560205260405f209060018060a01b031690815f5260205260ff60405f2054165f14610b0b57815f52600560205260405f20815f5260205260405f2060ff19815416905533917ff6391f5c32d9c69d2a47ea670b442974b53935d1edc7fd64eb21e047a839171b5f80a4600190565b91906001600160a01b038316908115610a3b57815f525f60205260405f205493818510610bf257506020817fddf252ad1be2c89b69c2b068fc378daa952ba7f163c4a11628f55a4df523b3ef925f95968587528684520360408620558060025403600255604051908152a3565b60405163391434e360e21b81526001600160a01b03919091166004820152602481018590526044810191909152606490fdfea2646970667358221220b5b357be9c4ea933234d4bb73eb6369cd3f42b7768ebf2924a398d13dfc671f264736f6c6343000818003305b8ccbb9d4d8fb16ea74ce3c29a41f1b461fbdaff4714a0d9a8eb05499746bc","linkReferences":{}},"methodIdentifiers":{"DEFAULT_ADMIN_ROLE()":"a217fddf","MAX_SUPPLY()":"32cb6b0c","MINTER_ROLE()":"d5391393","allowance(address,address)":"dd62ed3e","approve(address,uint256)":"095ea7b3","balanceOf(address)":"70a08231","burn(uint256)":"42966c68","burnFrom(address,uint256)":"79cc6790","decimals()":"313ce567","getRoleAdmin(bytes32)":"248a9ca3","grantRole(bytes32,address)":"2f2ff15d","hasRole(bytes32,address)":"91d14854","mint(address,uint256)":"40c10f19","name()":"06fdde03","renounceRole(bytes32,address)":"36568abe","revokeRole(bytes32,address)":"d547741f","supportsInterface(bytes4)":"01ffc9a7","symbol()":"95d89b41","totalSupply()":"18160ddd","transfer(address,uint256)":"a9059cbb","transferFrom(address,address,uint256)":"23b872dd"},"id":19}