{"abi":[{"type":"constructor","inputs":[{"name":"_runToken","type":"address","internalType":"address"},{"name":"_runPerSecond","type":"uint256","internalType":"uint256"}],"stateMutability":"nonpayable"},{"type":"function","name":"ACC_PRECISION","inputs":[],"outputs":[{"name":"","type":"uint256","internalType":"uint256"}],"stateMutability":"view"},{"type":"function","name":"BOOST_MULTIPLIER","inputs":[],"outputs":[{"name":"","type":"uint256","internalType":"uint256"}],"stateMutability":"view"},{"type":"function","name":"MAX_RUN_PER_SECOND","inputs":[],"outputs":[{"name":"","type":"uint256","internalType":"uint256"}],"stateMutability":"view"},{"type":"function","name":"addPool","inputs":[{"name":"stakingToken","type":"address","internalType":"address"},{"name":"agentToken","type":"address","internalType":"address"},{"name":"agentTokenThreshold","type":"uint256","internalType":"uint256"},{"name":"allocPoint","type":"uint256","internalType":"uint256"}],"outputs":[],"stateMutability":"nonpayable"},{"type":"function","name":"claim","inputs":[{"name":"pid","type":"uint256","internalType":"uint256"}],"outputs":[],"stateMutability":"nonpayable"},{"type":"function","name":"emergencyWithdraw","inputs":[{"name":"pid","type":"uint256","internalType":"uint256"}],"outputs":[],"stateMutability":"nonpayable"},{"type":"function","name":"getPoolCount","inputs":[],"outputs":[{"name":"count","type":"uint256","internalType":"uint256"}],"stateMutability":"view"},{"type":"function","name":"getPoolInfo","inputs":[{"name":"pid","type":"uint256","internalType":"uint256"}],"outputs":[{"name":"info","type":"tuple","internalType":"struct IStakingRewards.PoolInfo","components":[{"name":"stakingToken","type":"address","internalType":"contract IERC20"},{"name":"agentToken","type":"address","internalType":"contract IERC20"},{"name":"agentTokenThreshold","type":"uint256","internalType":"uint256"},{"name":"allocPoint","type":"uint256","internalType":"uint256"},{"name":"lastRewardTime","type":"uint256","internalType":"uint256"},{"name":"accRunPerShare","type":"uint256","internalType":"uint256"},{"name":"totalEffectiveSupply","type":"uint256","internalType":"uint256"}]}],"stateMutability":"view"},{"type":"function","name":"getTotalAllocPoint","inputs":[],"outputs":[{"name":"points","type":"uint256","internalType":"uint256"}],"stateMutability":"view"},{"type":"function","name":"getUserInfo","inputs":[{"name":"pid","type":"uint256","internalType":"uint256"},{"name":"account","type":"address","internalType":"address"}],"outputs":[{"name":"info","type":"tuple","internalType":"struct IStakingRewards.UserInfo","components":[{"name":"amount","type":"uint256","internalType":"uint256"},{"name":"effectiveAmount","type":"uint256","internalType":"uint256"},{"name":"rewardDebt","type":"uint256","internalType":"uint256"},{"name":"boosted","type":"bool","internalType":"bool"}]}],"stateMutability":"view"},{"type":"function","name":"owner","inputs":[],"outputs":[{"name":"","type":"address","internalType":"address"}],"stateMutability":"view"},{"type":"function","name":"pendingReward","inputs":[{"name":"pid","type":"uint256","internalType":"uint256"},{"name":"account","type":"address","internalType":"address"}],"outputs":[{"name":"pending","type":"uint256","internalType":"uint256"}],"stateMutability":"view"},{"type":"function","name":"refreshBoost","inputs":[{"name":"pid","type":"uint256","internalType":"uint256"}],"outputs":[],"stateMutability":"nonpayable"},{"type":"function","name":"renounceOwnership","inputs":[],"outputs":[],"stateMutability":"nonpayable"},{"type":"function","name":"runPerSecond","inputs":[],"outputs":[{"name":"","type":"uint256","internalType":"uint256"}],"stateMutability":"view"},{"type":"function","name":"runToken","inputs":[],"outputs":[{"name":"","type":"address","internalType":"contract IRunToken"}],"stateMutability":"view"},{"type":"function","name":"setPool","inputs":[{"name":"pid","type":"uint256","internalType":"uint256"},{"name":"allocPoint","type":"uint256","internalType":"uint256"},{"name":"agentTokenThreshold","type":"uint256","internalType":"uint256"}],"outputs":[],"stateMutability":"nonpayable"},{"type":"function","name":"setRunPerSecond","inputs":[{"name":"newRate","type":"uint256","internalType":"uint256"}],"outputs":[],"stateMutability":"nonpayable"},{"type":"function","name":"stake","inputs":[{"name":"pid","type":"uint256","internalType":"uint256"},{"name":"amount","type":"uint256","internalType":"uint256"}],"outputs":[],"stateMutability":"nonpayable"},{"type":"function","name":"totalAllocPoint","inputs":[],"outputs":[{"name":"","type":"uint256","internalType":"uint256"}],"stateMutability":"view"},{"type":"function","name":"transferOwnership","inputs":[{"name":"newOwner","type":"address","internalType":"address"}],"outputs":[],"stateMutability":"nonpayable"},{"type":"function","name":"withdraw","inputs":[{"name":"pid","type":"uint256","internalType":"uint256"},{"name":"amount","type":"uint256","internalType":"uint256"}],"outputs":[],"stateMutability":"nonpayable"},{"type":"event","name":"BoostUpdated","inputs":[{"name":"pid","type":"uint256","indexed":true,"internalType":"uint256"},{"name":"user","type":"address","indexed":true,"internalType":"address"},{"name":"boosted","type":"bool","indexed":false,"internalType":"bool"}],"anonymous":false},{"type":"event","name":"EmergencyWithdrawn","inputs":[{"name":"pid","type":"uint256","indexed":true,"internalType":"uint256"},{"name":"user","type":"address","indexed":true,"internalType":"address"},{"name":"amount","type":"uint256","indexed":false,"internalType":"uint256"}],"anonymous":false},{"type":"event","name":"OwnershipTransferred","inputs":[{"name":"previousOwner","type":"address","indexed":true,"internalType":"address"},{"name":"newOwner","type":"address","indexed":true,"internalType":"address"}],"anonymous":false},{"type":"event","name":"PoolAdded","inputs":[{"name":"pid","type":"uint256","indexed":true,"internalType":"uint256"},{"name":"stakingToken","type":"address","indexed":true,"internalType":"address"},{"name":"agentToken","type":"address","indexed":true,"internalType":"address"},{"name":"allocPoint","type":"uint256","indexed":false,"internalType":"uint256"},{"name":"agentTokenThreshold","type":"uint256","indexed":false,"internalType":"uint256"}],"anonymous":false},{"type":"event","name":"PoolUpdated","inputs":[{"name":"pid","type":"uint256","indexed":true,"internalType":"uint256"},{"name":"allocPoint","type":"uint256","indexed":false,"internalType":"uint256"},{"name":"agentTokenThreshold","type":"uint256","indexed":false,"internalType":"uint256"}],"anonymous":false},{"type":"event","name":"RewardClaimed","inputs":[{"name":"pid","type":"uint256","indexed":true,"internalType":"uint256"},{"name":"user","type":"address","indexed":true,"internalType":"address"},{"name":"reward","type":"uint256","indexed":false,"internalType":"uint256"}],"anonymous":false},{"type":"event","name":"RunPerSecondUpdated","inputs":[{"name":"oldRate","type":"uint256","indexed":false,"internalType":"uint256"},{"name":"newRate","type":"uint256","indexed":false,"internalType":"uint256"}],"anonymous":false},{"type":"event","name":"Staked","inputs":[{"name":"pid","type":"uint256","indexed":true,"internalType":"uint256"},{"name":"user","type":"address","indexed":true,"internalType":"address"},{"name":"amount","type":"uint256","indexed":false,"internalType":"uint256"},{"name":"boosted","type":"bool","indexed":false,"internalType":"bool"}],"anonymous":false},{"type":"event","name":"Withdrawn","inputs":[{"name":"pid","type":"uint256","indexed":true,"internalType":"uint256"},{"name":"user","type":"address","indexed":true,"internalType":"address"},{"name":"amount","type":"uint256","indexed":false,"internalType":"uint256"}],"anonymous":false},{"type":"error","name":"ExceedsMaxEmissionRate","inputs":[]},{"type":"error","name":"InsufficientStake","inputs":[]},{"type":"error","name":"NothingToClaim","inputs":[]},{"type":"error","name":"OwnableInvalidOwner","inputs":[{"name":"owner","type":"address","internalType":"address"}]},{"type":"error","name":"OwnableUnauthorizedAccount","inputs":[{"name":"account","type":"address","internalType":"address"}]},{"type":"error","name":"PoolAlreadyExists","inputs":[]},{"type":"error","name":"PoolNotFound","inputs":[]},{"type":"error","name":"ReentrancyGuardReentrantCall","inputs":[]},{"type":"error","name":"SafeERC20FailedOperation","inputs":[{"name":"token","type":"address","internalType":"address"}]},{"type":"error","name":"ZeroAddress","inputs":[]},{"type":"error","name":"ZeroAmount","inputs":[]}],"bytecode":{"object":"0x60a03461012f5761157990601f38839003908101601f19168201906001600160401b03821183831017610133578083916040958694855283398101031261012f5780516001600160a01b03918282169182900361012f5760200151913315610118575f543360018060a01b03198216175f558451913391167f8be0079c531659141344cd1fd0a4f28419497f9722a3daafe3b4186f6b6457e05f80a360017f9b779b17422d0df92223018b32b4d1fa46e071723d6817e2486d003becc55f005581156101095750678ac7230489e8000082116100f8576080526001555161143190816101488239608051818181610c2001526111a10152f35b82516320f4532560e21b8152600490fd5b63d92e233d60e01b8152600490fd5b8351631e4fbdf760e01b81525f6004820152602490fd5b5f80fd5b634e487b7160e01b5f52604160045260245ffdfe6080604081815260049182361015610015575f80fd5b5f3560e01c9081631069f3b514610c4f5750806317caf6f114610a1757806321acf4fe14610c0c578063276e023b14610bf15780632f380b3514610af657806332fcd96614610ad4578063379607f514610a355780633a58b91a14610a175780633ae19696146109f5578063441a3e70146108805780635312ea8e14610794578063715018a61461073d57806375934bc61461071f5780637b0472f0146105525780638da5cb5b1461052b5780638eec5d701461050d57806398969e82146104e057806399ab9b11146104a9578063c20632ba146102d4578063f1c8f9641461021a578063f2fde38b1461018d5763faa4e11414610111575f80fd5b3461018957602036600319011261018957813561012c61138e565b678ac7230489e80000811161017b577f42ef23384cb124164385feb06c7318826b377afde2ea2e69113ad35d0a7340f892506101666113b9565b600154908060015582519182526020820152a1005b50516320f4532560e21b8152fd5b5f80fd5b509034610189576020366003190112610189576101a8610d0f565b906101b161138e565b6001600160a01b039182169283156102045750505f54826bffffffffffffffffffffffff60a01b8216175f55167f8be0079c531659141344cd1fd0a4f28419497f9722a3daafe3b4186f6b6457e05f80a3005b905f6024925191631e4fbdf760e01b8352820152fd5b50346101895760603660031901126101895781359060243560443561023d61138e565b6003548410156102c4577f17b8644f386d1c7c7138ef98b3c8035622bbe94d7be9b26f71d2654a547c29439394506102736113b9565b6102968261029160025460036102888a610d87565b50015490610e19565b610e26565b6002558160036102a587610d87565b5001558060026102b487610d87565b50015582519182526020820152a2005b82516301dbb3ff60e61b81528590fd5b5034610189576080366003190112610189576102ee610d0f565b916102f7610cf9565b9160643560443561030661138e565b6001600160a01b0395861694851561049957855f52600560205260ff845f2054166104895786906103356113b9565b61034184600254610e26565b600255865f526005602052845f20600160ff19825416179055169583519061036882610d6b565b8682526020820188815285830184815260608401868152608085019142835260a08601935f855260c08701955f875260035468010000000000000000811015610476578060016103bb9201600355610d87565b9890986104645790806006989796959493925116906bffffffffffffffffffffffff60a01b91828b5416178a5560018a0192511690825416179055516002870155516003860155518885015551600584015551910155600354935f1985019485116104515750825191825260208201527fe1111ad6e2ccaf57d3d9aa458493b64bcf6a66c2028304b95772fe72e1fc36129190a4005b601190634e487b7160e01b5f525260245ffd5b5f8d634e487b7160e01b82525260245ffd5b60418d634e487b7160e01b5f525260245ffd5b50505051630188c99160e11b8152fd5b5050505163d92e233d60e01b8152fd5b8234610189576020366003190112610189576104cd906104c761107b565b35610f4b565b60015f805160206113dc83398151915255005b50346101895780600319360112610189576105066020926104ff610cf9565b9035610e33565b9051908152f35b5034610189575f366003190112610189576020906003549051908152f35b5034610189575f366003190112610189575f5490516001600160a01b039091168152602090f35b50346101895761056136610d25565b9161056a61107b565b8215610710576003548210156107015761058382610d87565b50825f5284602052815f20335f52602052815f206105a0846110aa565b6105aa3385611143565b50815483516323b872dd60e01b5f90815233895230602452604488905290916001600160a01b03169060209060648180855af160015f51148116156106e2575b8286525f606052156106ce575050907fbab40d9491cc04da47e7dabdf56f30a426011885e1c17a38cdb02f0ac5330bf892916002670de0b6b3a764000061069c6106343389611255565b9485156106c257600561064960035b8c610dd4565b6106548c8854610e26565b87556001870190610666818354610e26565b82556106818960038a019060ff801983541691151516179055565b61069060068501918254610e26565b90555491015490610dd4565b049101558151948552151560208501523393a360015f805160206113dc83398151915255005b60056106496001610643565b635274afe760e01b82528188015260249150fd5b60018115166106f857813b15153d1516166105ea565b823d5f823e3d90fd5b516301dbb3ff60e61b81528390fd5b51631f2a200560e01b81528390fd5b5034610189575f366003190112610189576020906001549051908152f35b34610189575f3660031901126101895761075561138e565b5f80546001600160a01b0319811682556001600160a01b03167f8be0079c531659141344cd1fd0a4f28419497f9722a3daafe3b4186f6b6457e08280a3005b5034610189576020366003190112610189578135906107b161107b565b60035482101561087157815f5282602052805f20335f52602052805f2080549384156108635750836108269160036107e886610d87565b50915f60018201805461080060068701918254610e19565b9055818355555f600282015501805460ff191690555433906001600160a01b0316611310565b519182527fafe87099d21cd68765ccb431a535ca7a632ac9f66e04e99c9574fb5ddfdefca760203393a360015f805160206113dc83398151915255005b8251631f2a200560e01b8152fd5b516301dbb3ff60e61b81529050fd5b5090346101895761089036610d25565b92909161089b61107b565b83156109e7576003548310156109d957825f5280602052815f20335f52602052815f2090848254106109cb575083610986916108d685610d87565b50906108e1866110aa565b6108eb3387611143565b506002670de0b6b3a764000061097160018401805461090f60068801918254610e19565b81556109578b6109406109316109268c8b54610e19565b92838b553390611255565b9182156109c357600390610dd4565b8455600388019060ff801983541691151516179055565b61096382548254610e26565b905554600586015490610dd4565b049101555433906001600160a01b0316611310565b519182527fcf7d23a3cbe4e8b36ff82fd1b05b1b17373dc7804b4ebbd6e2356716ef20237260203393a360015f805160206113dc83398151915255005b600190610dd4565b82516378de4a6960e11b8152fd5b90516301dbb3ff60e61b8152fd5b9051631f2a200560e01b8152fd5b5034610189575f3660031901126101895760209051678ac7230489e800008152f35b5034610189575f366003190112610189576020906002549051908152f35b503461018957602036600319011261018957813591610a5261107b565b6003548310156109d957610a65836110aa565b610a6f3384611143565b15610ac657610aaf600292670de0b6b3a764000092855f52602052805f20335f526020525f20936005610aa6600187015492610d87565b50015490610dd4565b0491015560015f805160206113dc83398151915255005b90516312d37ee560e31b8152fd5b5034610189575f3660031901126101895760209051670de0b6b3a76400008152f35b50346101895760203660031901126101895781355f60c08351610b1881610d6b565b82815282602082015282858201528260608201528260808201528260a08201520152600354811015610be35791610b5060e093610d87565b50825191610b5d83610d6b565b60018060a01b0390818354169485855282600185015416926020860193845260028501549082870191825260038601549360608801948552860154946080880195865260c0600660058901549860a08b01998a520154980197885283519889525116602088015251908601525160608501525160808401525160a08301525160c0820152f35b50516301dbb3ff60e61b8152fd5b5034610189575f366003190112610189576020905160038152f35b5034610189575f36600319011261018957517f00000000000000000000000000000000000000000000000000000000000000006001600160a01b03168152602090f35b9050346101895781600319360112610189576080925f6060610c6f610cf9565b93610c7981610d3b565b8281528260208201528286820152015280355f52602052815f209060018060a01b03165f52602052805f2090805190610cb182610d3b565b825492838352600181015460208401908152606060ff600360028501549486880195865201541694019315158452825194855251602085015251908301525115156060820152f35b602435906001600160a01b038216820361018957565b600435906001600160a01b038216820361018957565b6040906003190112610189576004359060243590565b6080810190811067ffffffffffffffff821117610d5757604052565b634e487b7160e01b5f52604160045260245ffd5b60e0810190811067ffffffffffffffff821117610d5757604052565b600354811015610dc05760079060035f52027fc2575a0e9e593c00f959f8c92f12db2869c3395a3b0502d05e2516446f71f85b01905f90565b634e487b7160e01b5f52603260045260245ffd5b81810292918115918404141715610de757565b634e487b7160e01b5f52601160045260245ffd5b8115610e05570490565b634e487b7160e01b5f52601260045260245ffd5b91908203918211610de757565b91908201809211610de757565b90600354821015610f4557610e4782610d87565b50915f52600460205260405f209060018060a01b03165f5260205260405f206005820154600483015480421180610f38575b80610f2d575b610eb0575b50610ead9250670de0b6b3a7640000610ea36002926001850154610dd4565b0491015490610e19565b90565b610ed7610ecc610ec3610ee09342610e19565b60015490610dd4565b600386015490610dd4565b60025490610dfb565b90670de0b6b3a764000091828102928184041490151715610de757610ea3610f25670de0b6b3a764000092610f1f6002956006610ead99015490610dfb565b90610e26565b925050610e84565b506002541515610e7f565b5060068401541515610e79565b50505f90565b60035481101561106957805f52600460205260405f20335f5260205260405f209081541561105757610f7c816110aa565b610f863382611143565b50610f913382611255565b91600381019260ff84541615159381151594851461105057611014670de0b6b3a7640000916005600294610fc488610d87565b50926110086001890192835492610fe060068801948554610e19565b8455811561104657610ff560035b8c54610dd4565b85559060ff801983541691151516179055565b61069082548254610e26565b049101556040519182527fd94a53ccc8a157733bf48b782547d6ba2a71444261bea3a2c33231bb65113dd360203393a3565b610ff56001610fee565b5050505050565b604051631f2a200560e01b8152600490fd5b6040516301dbb3ff60e61b8152600490fd5b5f805160206113dc83398151915260028154146110985760029055565b604051633ee5aeb560e01b8152600490fd5b6110b390610d87565b506004810190815442111561113f57600681015480158015611135575b61112e576110f3610ed76110e8610ec3865442610e19565b600385015490610dd4565b90670de0b6b3a764000091828102928184041490151715610de75761111d60059161112793610dfb565b9201918254610e26565b9055429055565b5050429055565b50600254156110d0565b5050565b919091805f526004602052604090815f209160018060a01b0380951692835f52602052805f206001810154801561124b57906002670de0b6b3a7640000610ea3611192946005610aa689610d87565b948561119f575b50505050565b7f000000000000000000000000000000000000000000000000000000000000000016803b15610189575f809160448451809481936340c10f1960e01b83528960048401528b60248401525af1801561124157611229575b5060207f24b5efa61dd1cfc659205a97fb8ed868f3cb8c81922bab2b96423e5de1de2cb79151868152a35f808080611199565b67ffffffffffffffff8111610d5757815260206111f6565b82513d5f823e3d90fd5b505f955050505050565b61125e90610d87565b5060018101546001600160a01b0392908316918215611308576002015492831561130857602460209260405194859384926370a0823160e01b84521660048301525afa9081156112fd575f916112b5575b50101590565b905060203d6020116112f6575b601f8101601f1916820167ffffffffffffffff811183821017610d575760209183916040528101031261018957515f6112af565b503d6112c2565b6040513d5f823e3d90fd5b505050505f90565b60405163a9059cbb60e01b5f9081526001600160a01b039384166004526024949094529260209060448180855af160015f511481161561136f575b836040521561135957505050565b635274afe760e01b835216600482015260249150fd5b600181151661138557813b15153d15161661134b565b833d5f823e3d90fd5b5f546001600160a01b031633036113a157565b60405163118cdaa760e01b8152336004820152602490fd5b6003545f5b8181106113c9575050565b806113d56001926110aa565b016113be56fe9b779b17422d0df92223018b32b4d1fa46e071723d6817e2486d003becc55f00a2646970667358221220595c88fc9f938deb4fdae39b8bb8c299f7167d7aeabefee291b4092c8945fad364736f6c63430008180033","linkReferences":{}},"methodIdentifiers":{"ACC_PRECISION()":"32fcd966","BOOST_MULTIPLIER()":"276e023b","MAX_RUN_PER_SECOND()":"3ae19696","addPool(address,address,uint256,uint256)":"c20632ba","claim(uint256)":"379607f5","emergencyWithdraw(uint256)":"5312ea8e","getPoolCount()":"8eec5d70","getPoolInfo(uint256)":"2f380b35","getTotalAllocPoint()":"3a58b91a","getUserInfo(uint256,address)":"1069f3b5","owner()":"8da5cb5b","pendingReward(uint256,address)":"98969e82","refreshBoost(uint256)":"99ab9b11","renounceOwnership()":"715018a6","runPerSecond()":"75934bc6","runToken()":"21acf4fe","setPool(uint256,uint256,uint256)":"f1c8f964","setRunPerSecond(uint256)":"faa4e114","stake(uint256,uint256)":"7b0472f0","totalAllocPoint()":"17caf6f1","transferOwnership(address)":"f2fde38b","withdraw(uint256,uint256)":"441a3e70"},"id":58}