{"abi":[{"type":"constructor","inputs":[{"name":"_usdc","type":"address","internalType":"address"},{"name":"_revenuePool","type":"address","internalType":"address"}],"stateMutability":"nonpayable"},{"type":"function","name":"accumulatedRevenue","inputs":[],"outputs":[{"name":"","type":"uint256","internalType":"uint256"}],"stateMutability":"view"},{"type":"function","name":"authorizedProcessors","inputs":[{"name":"","type":"address","internalType":"address"}],"outputs":[{"name":"","type":"bool","internalType":"bool"}],"stateMutability":"view"},{"type":"function","name":"getPayment","inputs":[{"name":"paymentId","type":"bytes32","internalType":"bytes32"}],"outputs":[{"name":"","type":"tuple","internalType":"struct IX402PaymentGate.PaymentInfo","components":[{"name":"payer","type":"address","internalType":"address"},{"name":"amount","type":"uint256","internalType":"uint256"},{"name":"resourceId","type":"bytes32","internalType":"bytes32"},{"name":"timestamp","type":"uint256","internalType":"uint256"},{"name":"settled","type":"bool","internalType":"bool"}]}],"stateMutability":"view"},{"type":"function","name":"getResourcePrice","inputs":[{"name":"resourceId","type":"bytes32","internalType":"bytes32"}],"outputs":[{"name":"","type":"uint256","internalType":"uint256"}],"stateMutability":"view"},{"type":"function","name":"owner","inputs":[],"outputs":[{"name":"","type":"address","internalType":"address"}],"stateMutability":"view"},{"type":"function","name":"processPayment","inputs":[{"name":"payer","type":"address","internalType":"address"},{"name":"amount","type":"uint256","internalType":"uint256"},{"name":"resourceId","type":"bytes32","internalType":"bytes32"}],"outputs":[{"name":"paymentId","type":"bytes32","internalType":"bytes32"}],"stateMutability":"nonpayable"},{"type":"function","name":"renounceOwnership","inputs":[],"outputs":[],"stateMutability":"nonpayable"},{"type":"function","name":"revenuePool","inputs":[],"outputs":[{"name":"","type":"address","internalType":"address"}],"stateMutability":"view"},{"type":"function","name":"routeRevenue","inputs":[],"outputs":[],"stateMutability":"nonpayable"},{"type":"function","name":"setAuthorizedProcessor","inputs":[{"name":"processor","type":"address","internalType":"address"},{"name":"authorized","type":"bool","internalType":"bool"}],"outputs":[],"stateMutability":"nonpayable"},{"type":"function","name":"setResourcePrice","inputs":[{"name":"resourceId","type":"bytes32","internalType":"bytes32"},{"name":"price","type":"uint256","internalType":"uint256"}],"outputs":[],"stateMutability":"nonpayable"},{"type":"function","name":"setRevenuePool","inputs":[{"name":"newRevenuePool","type":"address","internalType":"address"}],"outputs":[],"stateMutability":"nonpayable"},{"type":"function","name":"transferOwnership","inputs":[{"name":"newOwner","type":"address","internalType":"address"}],"outputs":[],"stateMutability":"nonpayable"},{"type":"function","name":"usdc","inputs":[],"outputs":[{"name":"","type":"address","internalType":"contract IERC20"}],"stateMutability":"view"},{"type":"event","name":"OwnershipTransferred","inputs":[{"name":"previousOwner","type":"address","indexed":true,"internalType":"address"},{"name":"newOwner","type":"address","indexed":true,"internalType":"address"}],"anonymous":false},{"type":"event","name":"PaymentProcessed","inputs":[{"name":"paymentId","type":"bytes32","indexed":true,"internalType":"bytes32"},{"name":"payer","type":"address","indexed":true,"internalType":"address"},{"name":"amount","type":"uint256","indexed":false,"internalType":"uint256"},{"name":"resourceId","type":"bytes32","indexed":false,"internalType":"bytes32"}],"anonymous":false},{"type":"event","name":"PriceUpdated","inputs":[{"name":"resourceId","type":"bytes32","indexed":true,"internalType":"bytes32"},{"name":"oldPrice","type":"uint256","indexed":false,"internalType":"uint256"},{"name":"newPrice","type":"uint256","indexed":false,"internalType":"uint256"}],"anonymous":false},{"type":"event","name":"RevenueRouted","inputs":[{"name":"amount","type":"uint256","indexed":false,"internalType":"uint256"},{"name":"revenuePool","type":"address","indexed":true,"internalType":"address"}],"anonymous":false},{"type":"error","name":"InsufficientPayment","inputs":[]},{"type":"error","name":"InvalidResource","inputs":[]},{"type":"error","name":"OwnableInvalidOwner","inputs":[{"name":"owner","type":"address","internalType":"address"}]},{"type":"error","name":"OwnableUnauthorizedAccount","inputs":[{"name":"account","type":"address","internalType":"address"}]},{"type":"error","name":"PaymentAlreadyProcessed","inputs":[]},{"type":"error","name":"ReentrancyGuardReentrantCall","inputs":[]},{"type":"error","name":"SafeERC20FailedOperation","inputs":[{"name":"token","type":"address","internalType":"address"}]},{"type":"error","name":"TransferFailed","inputs":[]},{"type":"error","name":"UnauthorizedProcessor","inputs":[]}],"bytecode":{"object":"0x60a03461010e57601f610a5838819003918201601f19168301916001600160401b0383118484101761011257808492604094855283398101031261010e57610052602061004b83610126565b9201610126565b9033156100f6575f549160018060a01b03908160018060a01b03199333858716175f5560405195823391167f8be0079c531659141344cd1fd0a4f28419497f9722a3daafe3b4186f6b6457e05f80a360017f9b779b17422d0df92223018b32b4d1fa46e071723d6817e2486d003becc55f0055166080521690600154161760015561091d908161013b82396080518181816102fb015281816106a501526108050152f35b604051631e4fbdf760e01b81525f6004820152602490fd5b5f80fd5b634e487b7160e01b5f52604160045260245ffd5b51906001600160a01b038216820361010e5756fe6080604090808252600480361015610015575f80fd5b5f3560e01c9182633e413bee146107f3575081634c4705ef1461079c57816358d0bf851461067b578163715018a614610624578163781c065c146105e85781637f753de6146105c0578163884957e61461057d5781638da5cb5b14610556578163ab3640c814610299578163bf8ed8771461023b578163d826744c14610215578163e66eefc814610163578163f2fde38b146100db575063ffacef08146100ba575f80fd5b346100d7575f3660031901126100d7576020906006549051908152f35b5f80fd5b9050346100d75760203660031901126100d7576100f6610834565b906100ff61087a565b6001600160a01b0391821692831561014d5750505f54826001600160601b0360a01b8216175f55167f8be0079c531659141344cd1fd0a4f28419497f9722a3daafe3b4186f6b6457e05f80a3005b905f6024925191631e4fbdf760e01b8352820152fd5b9050346100d75760203660031901126100d757815f608060a094516101878161084a565b8281528260208201528284820152826060820152015281355f526003602052805f208151916101b58361084a565b600180861b0382541693848452600183015460208501908152608060ff6002860154938588019485526003870154966060890197885201541695019415158552825195865251602086015251908401525160608301525115156080820152f35b82346100d75760203660031901126100d75781602092355f528252805f20549051908152f35b82346100d757806003193601126100d7577fbcd10d64fce9dcf9568572ed92e371df336d32649e8960a045c9548794a44b26908235926024359061027d61087a565b845f52602052815f2090808254925582519182526020820152a2005b9050346100d75760603660031901126100d7576102b4610834565b9160249182359260443593335f526020946005865260ff855f2054161580610542575b610532576102e36108a5565b805f52838652845f20548015610522578210610512577f0000000000000000000000000000000000000000000000000000000000000000938551936323b872dd60e01b5f5260018060a01b03988981169586845230835285604452895f606481808c5af197600198895f51148116156104f4575b828b525f606052156104e05750506002545f1981146104ce578701998a60025588519a8a8c01926001600160601b03199060601b1683528560348d015260548c01524260748c015260748b5260a08b01918b831067ffffffffffffffff8411176104bc578a9b85928a92858d52825190209c8d916103d48761084a565b8b875260c08401918b835260e08501938b8552610100860195428752610120019687525f52600390528d5f209651166001600160601b0360a01b875416178655518b860155516002850155516003840155511515910190610440919060ff801983541691151516179055565b600654918483018093116104ab57505086927f3589a8366509192322ee04bb3316d3a3edb581224a6f7253f5ef649256bf5a73928792600655825191825289820152a37f9b779b17422d0df92223018b32b4d1fa46e071723d6817e2486d003becc55f005551908152f35b601190634e487b7160e01b5f52525ffd5b83604186634e487b7160e01b5f52525ffd5b82601185634e487b7160e01b5f52525ffd5b635274afe760e01b82528b16848201528290fd5b8981151661050957813b15153d151616610357565b823d5f823e3d90fd5b845163cd1c886760e01b81528490fd5b85516340b4793760e01b81528590fd5b845163743d18d960e11b81528490fd5b505f546001600160a01b03163314156102d7565b82346100d7575f3660031901126100d7575f5490516001600160a01b039091168152602090f35b346100d75760203660031901126100d757610596610834565b61059e61087a565b600180546001600160a01b0319166001600160a01b0392909216919091179055005b82346100d7575f3660031901126100d75760015490516001600160a01b039091168152602090f35b82346100d75760203660031901126100d7576020906001600160a01b0361060d610834565b165f526005825260ff815f20541690519015158152f35b346100d7575f3660031901126100d75761063c61087a565b5f80546001600160a01b0319811682556001600160a01b03167f8be0079c531659141344cd1fd0a4f28419497f9722a3daafe3b4186f6b6457e08280a3005b9050346100d7575f3660031901126100d7576106956108a5565b60065490811561078e575f6006557f000000000000000000000000000000000000000000000000000000000000000060018060a01b039182600154169185519263a9059cbb60e01b5f5282528460245260205f60448180855af160015f511481161561076f575b8387521561075a57857f935c711c54e8ae27da86993c7329b3da300166532c873b40e10d101de1024d3060208787600154169351908152a260017f9b779b17422d0df92223018b32b4d1fa46e071723d6817e2486d003becc55f0055005b92602493635274afe760e01b84521690820152fd5b600181151661078557813b15153d1516166106fc565b833d5f823e3d90fd5b82516312171d8360e31b8152fd5b82346100d757806003193601126100d7576107b5610834565b906024359081151582036100d7576107f1926107cf61087a565b60018060a01b03165f5260056020525f209060ff801983541691151516179055565b005b346100d7575f3660031901126100d7577f00000000000000000000000000000000000000000000000000000000000000006001600160a01b03168152602090f35b600435906001600160a01b03821682036100d757565b60a0810190811067ffffffffffffffff82111761086657604052565b634e487b7160e01b5f52604160045260245ffd5b5f546001600160a01b0316330361088d57565b60405163118cdaa760e01b8152336004820152602490fd5b7f9b779b17422d0df92223018b32b4d1fa46e071723d6817e2486d003becc55f0060028154146108d55760029055565b604051633ee5aeb560e01b8152600490fdfea26469706673582212206b6cb2d746dc223605ef820d49b1799035a167f804534b1a6186949b8bac1c9464736f6c63430008180033","linkReferences":{}},"methodIdentifiers":{"accumulatedRevenue()":"ffacef08","authorizedProcessors(address)":"781c065c","getPayment(bytes32)":"e66eefc8","getResourcePrice(bytes32)":"d826744c","owner()":"8da5cb5b","processPayment(address,uint256,bytes32)":"ab3640c8","renounceOwnership()":"715018a6","revenuePool()":"7f753de6","routeRevenue()":"58d0bf85","setAuthorizedProcessor(address,bool)":"4c4705ef","setResourcePrice(bytes32,uint256)":"bf8ed877","setRevenuePool(address)":"884957e6","transferOwnership(address)":"f2fde38b","usdc()":"3e413bee"},"id":59}